:100000000C9464080C9491080C9491080C94910839
:100010000C9491080C9491080C9491080C949108FC
:100020000C9491080C9491080C9491080C949108EC
:100030000C940F370C9491080C9491080C9491082F
:100040000C9491080C94A6240C9491080C9491089B
:100050000C9491080C9491080C9491080C949108BC
:100060000C9491080C9491080C9491080C949108AC
:100070000C9491080C9491080C9491080C9491089C
:100080000C9491080C9491080C9491080C9491088C
:100090000C94E6360C94BC360C9491080C949108A0
:1000A0000C9491080C9491080C9491080C9491086C
:1000B0000C9491080C9491080C9491080C9491085C
:1000C0000C9491080C9491080C9491080C9491084C
:1000D0000C9491080C9491080C9491080C9491083C
:1000E0000C9491080C94321E0C94641D0C944730AF
:1000F0000C94B0360C9472230C94852D0C9430170C
:100100000C94462A0C94B11A0C9461200C94BA29D0
:100110000C94862B0C94CC230C94E5300C94082979
:100120000C9484180C94761E0C943D110C943E2172
:100130000C94A51C0C94AD1F0C94BC180C940915C0
:100140000C94ED2B0C94611C0C9422100C943C1517
:100150000C949E1D0C947C100C9446320C94D81276
:100160000C9459210C94AE1B0C94F9250C949D1FF2
:100170000C94001D0C944D1E0C949D360C9440263E
:100180000C94E2220C94B5220C9433150C94F22BAF
:100190000C949F110C949D2A0C9498100C94DB2ABB
:1001A0000C947B310C94531D0C94E6170C94D732AD
:1001B0000C94EB100C942C220C94271A0C94D72935
:1001C0000C94F92C0C9440130C94B6150C94752ACD
:1001D0000C9422240C9474330C947A290C942B31B3
:1001E0000C9439230C9455360C9465320C945D268E
:1001F0000C9489290C943F260C940F300C943429CC
:100200000C941C330C9458360C946F220C94DC1F05
:100210000C94EC150C94A0180C94A4210C942F2190
:100220000C94A3220C94A4230C9494330C94B02B20
:100230000C9454240C9464200C9476330C943F302A
:100240000C9465120C94521B0C94AA190C9412185D
:100250000C940C110C94F6120C9465270C94111C40
:100260000C94191B0C9414150400020000040004E3
:10027000000004070404000004040400000000005F
:100280000000040000000000040000020200000062
:10029000020407000407070400000000040004042F
:1002A000000004000202040404040400000400042A
:1002B0000404040404040004000203040004040011
:1002C000040004000004000400000000000000001E
:1002D00001020102C60234290200010000007A294D
:1002E00003000100000055360400010000005836EC
:1002F0000500010000009D36060100012A102210B1
:10030000070001000000981008010001C5027C10E0
:100310000900010000003F260A020101251065279F
:100320000B030103C20240260C020102C00208298D
:100330000D020002C602ED2B0E020002FE0F651236
:100340000F030003C202401310020002C002D812C1
:1003500011050005BB02F61212020002FE0F462A2A
:1003600013010001C5029D2A14020002C002752A71
:1003700015020002FE0FBA2916040004B702F92C78
:1003800017050005B202F22B18010001C5026F2209
:1003900019080008AA02E2221A030003A70239235F
:1003A0001B020002FE0F2C221C020002C002B5221A
:1003B0001D040004121072231E010001C502A322B5
:1003C0001F0800089F022B3120020002C002E53006
:1003D000210400030010761E2203000216109D1F48
:1003E000230300021610AD1F24040004FA0F473047
:1003F00025010001C5023F30260300039C020F3097
:100400002705000597029E1D28030003A7024D1E25
:1004100029050003940264202A0400039102001DB0
:100420002B0300021610531D2C040004FA0F641D48
:100430002D0300038E0233152E03000318103C1504
:100440002F0600068802B615300600068202EC155B
:1004500031010001C5023D1132030003C2029F11A8
:1004600033020002FE0F14153403000216107B3114
:100470003504000412101C3336030003A7020C11CC
:100480003703000216104632380300021610D73226
:1004900039060006820265323A03000216108418FB
:1004A0003B0300021610A0183C0800087A02BC1892
:1004B0003D020002FE0F191B3E0500057502AE1B32
:1004C0003F0400041F10E61740020002FE0F12183E
:1004D000410400037202B11A420500056D02521B6D
:1004E00043010001C502DB2A440400030810862BE7
:1004F000450500056802B02B46040004FA0F2224CB
:10050000470300039C025424480001000000B03659
:1005100049000500000020002300260029002C00CF
:100520002F003200000100000301060109010F47FE
:10053000004400450080013548004400450020018A
:100540000D88008000810080000E8A0080008100FC
:1005500020000F8C008000810008000CB300B00068
:10056000B10080033EB400B000B100200323980026
:10057000900091008000249A0090009100200025B6
:100580009C009000910008003BA800A000A1008002
:10059000003CAA00A000A10020003DAC00A000A1EA
:1005A0000008005B28012001210180005C2A012055
:1005B00001210120005D2C0120012101080078DAD1
:1005C0009D59E98EDBC8117E955E0146B2C1782047
:1005D00089A48E09FC63AEDD38EBB1672D4F1C207A
:1005E00008080ED9921AC36B79CC91C5BC7BEAE896
:1005F0008B94EC0D62C010BBBBAABABBBAEAAB636A
:100600007E9FDCF72ACFE247D9B4AA2ADBC9D96496
:1006100097A667E2CF3F5F5EFE28A2D3F0742AEE72
:1006200055D9772A6F71F6E39DB8D0C31FC5FC7406
:10063000BE389D4F678BE96C1E4D4E266955144997
:10064000998190DF27499E5769D2C9B852592BD258
:10065000AA2FBB776FD2C9D9EA0476EC3AD82A4ED2
:10066000D20701AB30EDAD2F661E41961982BA6AF2
:10067000E94795EFDEF4A2EEF33CEE6B66081CC38F
:100680006FBD6C5EAC4C38C0035237B2EDE24EA584
:100690000F2D8FBA2629DB4275B1D955A812EEAFBE
:1006A000F79FC33D72993471BBEFBBAC7A2A2767C1
:1006B0003855955BB583133DE74118992DDA5AC536
:1006C000FC39398B668EAA4CF26A17ABD29E9E8E8D
:1006D0003D390B9C247D6443C1C3D8D34368496929
:1006E00052364361031D2CDDDE99DAA92EC9E3AA37
:1006F000EF460C8F49DE4B1C67729BF47917DB8940
:1007000022798EB3BE493AB0003AE76C69E5497880
:10071000CFAEAA07B2D2C1E6F38525DE6761B85C29
:100720004D0D71D3C67A6F693EB2D07E45F66B61CE
:10073000BF96F64BE6C98B7D3450C7D46EA2E6A9AE
:10074000D9003E4191FCAC606BF80B3603EFCD4C09
:10075000A1D36129AB5A3DCB7CA4932CE992B85527
:10076000FF01D67D0F86DEC5A80BCF565A0953AAC6
:10077000F44FB2B642EBA7E2889ED317B01F2743CF
:100780006B79DF8FF50E33078A0F9DE2C1B6C68203
:10079000D1653AF528E3BDDAED49F7C1CAA707C329
:1007A000DBE5F2D038855D8BBB975AB2B986034E34
:1007B00063ECC798F5525CB4BB776FFE02DE1D0494
:1007C00003DE27D5ED410D716AAC1928BC7B74CBD3
:1007D000F5DC9A446A4DA24DF307FBAD32FBF952AA
:1007E000A6F1F0F5455A64F1D820227F0759D7CEFB
:1007F0003F70186B3BCD54633ED9C789D851F5790A
:100800002B3DA17377B16E2F9BA202D7AB8F6AD419
:100810005F764A0D9D957645DA278DB58DE6393E92
:10082000F05BD1D949B4BC4E15922DCC3954D7A028
:100830003E9C5A417E26EF7BB0E7AA9E9CADCD0838
:10084000A4ECC896F97D6696AC9109406893C906F8
:10085000F743DF60FF9E1B82A74675F280028D96EC
:1008600009015864219B9D2CD3971881000E0153D8
:100870000C0AF1BE2AE401DCB64951FB0EA0C716F2
:100880006C87700C477740C4D7B53A6ED46E271B7F
:10089000BC448BFE815813B9CD09ECE14C4927AD1E
:1008A00082E660D55B05F00B2E1DB30E45DAA4ACD5
:1008B000D693C90EBC99CE09F6A347440308CAC310
:1008C000BEC65780873C99682C8B5BD82F060BB42B
:1008D000508DDFACE7683D22C3273064EE392270CB
:1008E0005244AAA2CAD4F62586B7B6B21A492E2512
:1008F00074C48113E02AB3853366E3371CD2E35C0A
:100900009C4B0D1A7326D46F39DE3E840753992C05
:100910003BD85C54DB2DEC424E65430DEC63E0911B
:10092000AE61B5B9587A2B7D9D394D733CDEF7DE4B
:10093000360BB8253FC928481E8FC3A096E9888189
:10094000DEB2772012AE2DC138A0FE9FC6563863A6
:10095000D3E8EB469014EC80712FD3072F0C0733AC
:1009600073865114B627A82BF0E7F1FEEE964B7B69
:10097000CB0380FE468282160878ACB67C82283093
:10098000028E41D2376478171DDC137310D66A2F9C
:100990008FA50A565CE587BC5964584611CF925B17
:1009A00035C2AB2D0C3142AC8DD4A83B46156379D2
:1009B0007B0AD6F0ABC06FC18429D882C2CC27F1A4
:1009C000B3BB8EF70306502BD2F87718E53970EEDB
:1009D000E080886E4011DACA1C846B605A3053295B
:1009E0009FF511208858AF520DE3CC8C898C3EFEC8
:1009F00020F4835640855E14C60C74EB8CC9C38A00
:100A000039D3797EE8AD06A159ED30EFF1E3924E8E
:100A1000830063A4970E01CBC2B1B4D5B67B4A1A4A
:100A2000E9F316AAAD4C142AAA561D0BCF0742C3F0
:100A3000150BFDF63D02BC2F45FEEF02E86248F5BE
:100A40000DFC245914E3630469C01E851993058ABB
:100A5000D9DA11506840EBE5E0216C2CF1220B70E3
:100A6000C00574841EA89A20D4222C8320ECAEB931
:100A70005187E89D473C004C62E5E83A3FF2CBBA2B
:100A80006A74D86147A5B13512F95C2B78123FC85A
:100A9000ADADA4D12D7C22C06686E4637EECF94026
:100AA000F86AB2092CCBCEAF2EE39BF37F628E8027
:100AB000C9CEC5DD26BE7DFF7183E004A5DFED450F
:100AC00070727B3187FFB389B7D83DD1E2D5F4E4AA
:100AD000F60A172E3F7CBAFC25FEE9F3F5AFE82EA7
:100AE00053FA7732B9B9BC03AAA42BE42E99478BE9
:100AF0002910DE7EBDE1DDE6F8869FAF2FAFDFFF78
:100B0000E33AFEFAFEE3D5A7AFF86C739CDC5C7F9A
:100B100086493E856C5492D35E7088AB0044C0EA2F
:100B2000FBF30FF1C5F9DD158AE1AD365FCEBF6C81
:100B3000E2CDDDCDE65758D95CE3CAE21553831EFA
:100B400092154AA7A908D5F5017ED21DA640033605
:100B50008DE3DBF3E9E4EC5FD393D5BFE19817F8BD
:100B6000BDE2EF4BFC0610A0C1150E20A9A0C135B7
:100B70000EA084A3C14F380835FFCF34D002FE86C3
:100B800083480BF83B0E969AE717DA46F37CA001F0
:100B9000F2BC0EA0017249AA9F674110C0894F267E
:100BA000491B4DC3654671BACB6504C5F63D5C581B
:100BB00073E9EBD1FBE1F530862A34C10672C258E5
:100BC00065FAD10519C796A31CD76CE739DAF88BFB
:100BD00030F952C680799994A2AC3A01C62E1030F1
:100BE00004601C039B209B154F7B05DF6C7BADA82D
:100BF000C17B60274664C3DBB792C2583313DBAABC
:100C00001160067F3563D5E26A46F334D572E90C8C
:100C1000AC7FEA30204031B0830341869D74489D0B
:100C2000E86372E9C329A0266E91144D9E13559E68
:100C3000A5D841A2E1A4B214A63AB0FC607497DC36
:100C4000A81075D280C909D934554339A0596824F0
:100C500084B0B6A376C54F09DC37135D250829B0EB
:100C6000FC2407E76AED7D09BEA63261EA79D75E0A
:100C7000E038C7086CA8748784D24F37076478942B
:100C8000A4901024B90A318B45F528CD690416AA21
:100C9000E8D16ED996B5B690E5BCF1605D676F7628
:100CA0007FAC540C112850B0D9615D6066B1FE3440
:100CB000B8315F0EE6751A93EE55AD19836848009A
:100CC0004FD0D7EE4E2DA705866290C8F85210453A
:100CD0009267B4D3955128D7B83750D2273B29A073
:100CE0000C8158641E0C44DEA816ADA985BC2DEB02
:100CF000732C83801943B7D0A848862F1F25BE04C4
:100D000046ED6F33EC93262363D7D458E5DEA0FA83
:100D1000299B11F0D56CF3EA89D3A18F60E589E0B6
:100D2000EBA07B11AA84A305B07B5EC0A8EE2FA820
:100D3000B2E6A481B3735A2AF1A46E3A24F4B4D66D
:100D40005F37D50E9459C0D113BCDB16A22E9C126E
:100D5000942DD1713197FE2CF5A5D058D1B3601BDD
:100D600054353C035A3256091B4B70A01DF1A4F2B6
:100D70001C82510AF2067D090EAF8ED36AE83B1C35
:100D8000D8E7DA8017F21BD2019042157D61E68C1C
:100D90007380656D4CEF81AA2010467E4B18E4B736
:100DA000E036DA91BBAA12DB846EC737C3A2EF8BA1
:100DB0006F5247F06E3D2241AD822C6AC870ECFE46
:100DC000422A43E110AA5B4975EE5DD9F635866B80
:100DD000C97E4F608B65C9D7A44BF759B56345FFF2
:100DE000C0593AB53CA182E8CB07108CA0C19D3414
:100DF0006FBE750B60BCEC46802A2D80213A3924E9
:100E000002500BB66C0281EBD030A655650E30F85F
:100E1000080292FBDCA09BD5D09A8A40A1F313CEA6
:100E2000D14655E799F804F80A31F21E538A2D7617
:100E30001DDA1FB8C6A12EAD855ADDBBCDB895D041
:100E400062ED580288B055A5B08C4BA14DA1087D2C
:100E5000487579D2A0BAB1C638929CE093B20360CB
:100E6000CB482332BB17A66410BD0EDA2A18BE2069
:100E7000830866AB28A268A8070B0A873C5844641D
:100E80001F30582C96F01DBCBE520951037C486E91
:100E900046EB02D3CF2F5B04D53295A332768D116A
:100EA000F7583DEA8A1D5D8D99048E0B055FDA7D4A
:100EB0004FEE495C5BB5ADF037575EC7192B82D555
:100EC0001A0D40D7B58336064B3C565BAD22D7EBA7
:100ED0001E70245ED12A6845DF066D882A2897A8EF
:100EE0002E6DCF10C2AB6E80D0FDA84F8273C6A806
:100EF000A83E00DCF38FBDA4F62795C2DF3BB4E625
:100F0000D01FB1DBFD2D5A9B694EB5E07DB6D7B43D
:100F10009AB9DECE40F2BE82727677B887DF3A02A7
:100F2000F6C0B54B62F3FA2E71E6316B65B5721DF2
:100F3000118FD4B646D81A4E9114ACC15388186795
:100F4000575A27A1D727D1B73256D6A729B5A353C9
:100F5000BC3A5829ECE5B7EA56E85F0EFF4C57E378
:100F6000F836831AF27FB1E5C067F0CA1C9F1EC82D
:100F7000E6C76AD3031DFAAD064F99EBD9B016FC4C
:100F800023DD53C907A04149E332E08CB57506D390
:100F9000F685FE697F637B5DB8EA6E54FA711B0AC1
:100FA00032DFD57C841DC35738EA503DA33F1BCFA9
:100FB000D2D58387E7C74A90AE1AF9259E33D0343D
:100FC000B1F5E6D1BEA5E77CAB109191B2536EE2CC
:100FD000F7BE672E01B8F45FE2A0087A9C9ECEA609
:100FE000A7D3B7E17CF176976C8355B69CAE26AF5C
:100FF000FF059010491C380A00000400000004049A
:1010000004040704020400070402070400000204A9
:1010100004020400000404070400020404040004A1
:1010200004000404010704000402000000000000A2
:101030000006000202611704FA0F600A02FE0F5F49
:10104000400216105E400300105D400308105C0B68
:101050000203105B400305105A40030810591C0797
:101060000B10584002161057140412105640021666
:101070001055100318105411041B105311041F10A5
:10108000520D022310510B012A1050400125104F20
:10109000120426104E0B012A104D10022B104C1575
:1010A000032D1000400230104B0E0232104A09018D
:1010B0003410490600000028292A2B2C2D2E2F50F1
:1010C000515253545556570011241FBECFEFD1E251
:1010D000DEBFCDBF00E00CBF14BE0FB6F894A895DC
:1010E00080916000886180936000109260000FBE64
:1010F00012E0A0E0B2E0E8E9FFE600E00BBF02C0CA
:1011000007900D92AA32B107D9F723E0AAE2B2E024
:1011100001C01D92A639B207E1F70E94D7250C94B1
:10112000CA370C940000CF93DF93CDB7DEB76E972C
:101130000FB6F894DEBF0FBECDBF0E94C4256B0171
:101140007C019E012F5F3F4F1901AE01475F5F4F4A
:101150005B8B4A8B80912602882309F4D0C40E94BD
:10116000C425C61AD70AE80AF90AF894809126021B
:10117000882351F08FEF8093260278940000F89432
:10118000809126028111F9CF78940E94C425A7018D
:101190009601260F371F481F591F288F398F4A8FF6
:1011A0005B8F81E08093260280914C02882309F4B2
:1011B00040C010924C028FEF898396E7E92E90E1B0
:1011C000F92E63EA72E2C1010E94C7108C01892BDB
:1011D00081F1D80156968C9182FFF3CF0E94C425ED
:1011E000F894F80137892689422F4B7F468B7894F3
:1011F0009F938F937F936F931F923F9321701F92C2
:101200002F9389811F928F93FF92EF920E942A2E33
:101210002DB73EB7245F3F4F0FB6F8943EBF0FBEC9
:101220002DBF63EA72E2C1010E94C7108C01892BB5
:1012300081F680914D02882309F110924D028FEFC3
:10124000898301E710E165EE70E3C1010E94C710D8
:10125000FC01892B99F0958D868D9813F4CFF89425
:10126000858D968D891709F42BC5789465EE70E30A
:10127000C1010E94C710FC01892B69F780914902C6
:10128000882309F456C0109249028FEF898B8CE0B5
:10129000B82E6DE47EE1CE0141960E94C7104C014C
:1012A000892B09F446C0D40157968C91579780FF3B
:1012B000F0CFF894F4014480558066807780878968
:1012C0008E7F878B789456968C91813009F481C3F8
:1012D00008F459C3823009F41AC38330D1F6A988BF
:1012E0001F86188A9E01215F3F4F42E061E0F401B2
:1012F000848995890E94A31E8F859889382F292F6C
:101300003D8B2C8B790100E010E0B401605F7F4FD2
:10131000C12CA3019201C4010C960E94DD1D3C89E1
:1013200032FFB7CF809127028111B3CF8CE10E94A9
:101330004E3680914602882389F1109246028FEF43
:101340008B87A2E0DA2EBDE2EB2E18E0F12E64E1ED
:1013500075E1CE010B960E94C7108C01892BF1F02C
:10136000D80152968C9182FFF2CF80FF12C0C80143
:101370000E949733F801D28AE982FA82910142E011
:1013800060E0848595850E94A31EC8010E943316E3
:10139000DECF6B85C8010E947816D9CF80914502B7
:1013A000882309F45AC0109245028FEF8B87772467
:1013B0007A94FDE14F2E6CE071E1CE010B960E9414
:1013C000C7108C01892B09F448C0D80150968C9124
:1013D00082FFF1CFF894F80184809580A680B780D1
:1013E000F488108A148A789480859185A285B385C3
:1013F000881A990AAA0ABB0AD801FF2089F05296D6
:101400008C91F801E80FF11D758A168A178A8D5F95
:10141000F801828B8E32D8F4FA94D801F110EFCF14
:1014200051968C91882309F413C2813009F4FEC2CD
:10143000823009F4F3C3D80152968C9190E08E97D4
:101440000CF4B9CF6B85C8010E94F632B4CF6B851E
:10145000C8010E94F632FA94E0CF809147028823B7
:10146000E9F0109247028FEF898304E410E162E112
:1014700078E1C1010E94C710009781F0FC01208D26
:101480002F3FA9F7F8942685211104C3789462E1CF
:1014900078E1C1010E94C710009781F7809148024E
:1014A0008823D9F1109248028FEF89830FE310E16E
:1014B00062E57BE1C1010E94C710009771F1DC0178
:1014C0001E962C911E9723FFF3CFF894FC012685DE
:1014D000277F268778949C01265E3F4F3F932F936A
:1014E00050968C918695869586951F928F938981CB
:1014F0001F928F931F930F930E942A2EEDB7FEB772
:1015000038960FB6F894FEBF0FBEEDBF62E57BE1E3
:10151000C1010E94C710009791F680914E02882366
:1015200009F446C010924E028FEF898305E310E163
:1015300064E574E2C1010E94C710FC01892BC1F16E
:10154000848D80FFF5CFF894948125813681478181
:10155000548965897689A789B08DF18CE28CD38C0A
:10156000848D8E7F848F7894DF92EF92FF92BF9369
:10157000AF937F936F935F934F933F932F939F937B
:1015800089811F928F931F930F930E942A2E2DB74C
:101590003EB7205F3F4F0FB6F8943EBF0FBE2DBF42
:1015A00064E574E2C1010E94C710FC01892B41F679
:1015B000A89580917202882329F080E480936000CE
:1015C0001092720210913303112309F46DC000913F
:1015D0002A0200FD12C0153008F466C0B0907302F4
:1015E000CB2C8BEF8B0D8C3308F4B0C2EEE7CE160C
:1015F00009F41AC4016000932A02412F50E06EE7FB
:1016000070E083E792E00E949B37009739F00E7FED
:1016100000932A028357924011E0180F01FD0CC07D
:10162000902F926090932A0281E195E09F938F938F
:101630000E942A2E0F900F90B12EDD24DA9480E0C4
:10164000EB2CF12C18C090E0402F50E0481B590BB8
:10165000B701680F791F6D587D4F8D589D4F0E94BF
:10166000B13710922602802F9FB7F8942091330350
:10167000121761F09FBF10913303012F0B1919F757
:101680009FB7F894209133031213F4CF00933303E0
:101690009FBFF1E0DF1208C081E195E09F938F9337
:1016A0000E942A2E0F900F900E94C4256B017C018E
:1016B000288D398D4A8D5B8D621B730B840B950BC6
:1016C0008090330290903402A0903502B0903602A0
:1016D0003FEF831A930AA30AB30A809233029092CF
:1016E0003402A0923502B092360240902F02509000
:1016F00030026090310270903202460E571E681E12
:10170000791E40922F025092300260923102709204
:1017100032026115710541E08407910508F0F4C1BA
:101720009B01AC010E941A37DC01CB0181509F4F15
:10173000AF4FBF4F892F9A2FAB2FBB2740912B0262
:1017400050912C0260912D0270912E02840F951FF2
:10175000A61FB71F84179507A607B70718F48FEFC2
:101760009FEFDC0180932B0290932C02A0932D021B
:10177000B0932E0240916E0250916F026091700200
:10178000709171025C546B437B4F2F2DC416D506AC
:10179000E606270B27FDDECCBF93AF939F938F9375
:1017A0007F926F925F924F92BF92AF929F928F9271
:1017B0008EE990E19F938F930E942A2E6DB77EB79A
:1017C000625F7F4F0FB6F8947EBF0FBE6DBF8091F2
:1017D0006E0290916F02A0917002B0917102C816D2
:1017E000D906EA06FB0698F480916A0290916B0292
:1017F000A0916C02B0916D020196A11DB11D809364
:101800006A0290936B02A0936C02B0936D02C09237
:101810006E02D0926F02E0927002F092710210920A
:101820002B0210922C0210922D0210922E02109276
:101830002F02109230021092310210923202109256
:10184000330210923402109235021092360282CC8A
:1018500082E389831A820E94C4256B017C01910175
:1018600042E061E0F801848595850E94A31E0E94F4
:10187000C425DC01CB018C199D09AE09BF09813259
:101880009340A105B10508F0F7C0998197FD2EC1DD
:10189000C818D908EA08FB08D80153968C91882308
:1018A000C1F02FEF280F41E050E002C0440F551F58
:1018B0002A95E2F7052E000C660B770BC40ED51E99
:1018C000E61EF71E04C0F694E794D794C7948A9551
:1018D000D2F7BFEFCB16D104E104F10408F064C1E4
:1018E0002A8130E0220F331F892F90E0982F88271C
:1018F000990F822B932BF8012289E20FF11DC58AE3
:10190000868B978B2D5FD80152962C9394CDA98806
:1019100081E089831A821B821C82910143E061E08D
:10192000848995890E94A31E69817A818B819C811B
:101930000E942A37272F382F492F55272C8B3D8B74
:101940004E8B5F8B37E039831A82910142E061E070
:10195000D40154968D919C9155970E94A31EEC88BA
:10196000FD880E891F8900271127B401605F7F4F12
:10197000CA80A3019201C4010C960E94DD1DBC899E
:10198000B0FF87CCCFCCA9881B861C861D861E86FF
:101990009E01255F3F4F44E061E0F4018489958911
:1019A0000E94A31E6B857C858D859E850E942A37AB
:1019B000D62EF72EB401605F7F4FC12CED2C8C0129
:1019C000A3019201C4010C960E94DD1DD2FE61CCE0
:1019D000A9CCA988B9821A821B821C82910144E099
:1019E00061E0848995890E94A31E69817A818B8137
:1019F0009C810E942A376B017C01BFE0B9831A8267
:101A0000910142E061E0F401848995890E94A31E5E
:101A1000870176011127B401605F7F4FCA80A3015F
:101A20009201C4010C960E94DD1D33CC8FE789839F
:101A30008EEF8A830E94C4256C8B7D8B8E8B9F8B4F
:101A4000910142E060E0F801848595850E94A31E23
:101A50000E94C4256B017C01DC01CB012C893D89EE
:101A60004E895F89821B930BA40BB50B8132934087
:101A7000A105B10508F4A5C0D80152968C91F801D2
:101A8000E80FF11D758A92E0968B178A8D5FF80139
:101A9000828BD1CCFC01318D308F7894AC01415FC9
:101AA0005F4F5F934F931F922F9387891F928F935E
:101AB00089811F928F931F930F930E942A2EEDB757
:101AC000FEB73A960FB6F894FEBF0FBEEDBFCFCC6F
:101AD0002A893B89E217F30709F0E3C0809590E07B
:101AE0002A8530E08217930709F40AC1D80152967B
:101AF0008C91F801E80FF11D758A93E0C5CFC88E6F
:101B0000D98EEA8EFB8E4DCB6115710550E18507AC
:101B1000910508F024CE8B019C0101501F4F2F4FDF
:101B20003F4F5527432F322F212F0E941A37DC01B8
:101B3000CB0140912B0250912C0260912D027091AB
:101B40002E02840F951FA61FB71F04CED0907402DB
:101B50008D2D807F803109F049CD1B1508F4A4CD6F
:101B60008B2D90E0FC01EE58FD4F20812E3709F0BF
:101B70003DCDAC0140595D4F4A01FC01EF58FD4F8E
:101B80009081DA018C91292F30E07901F82A6DEFEC
:101B90006B0D83E792E00E94DA25E816F90609F456
:101BA00045C1C090730222CDF8018289E80FF11D72
:101BB000758A91E0968B178A8D5FD80152968C9327
:101BC0003ACC80EC89831A82910142E061E0D8012D
:101BD0001C968D919C911D970E94A31E49812A817C
:101BE000942F9227892F82958F709827892F869519
:101BF00086958927982F9695892780FD95C046FF61
:101C0000A3C0F8018289E80FF11D758A25E0268BB3
:101C1000178A8D5FD80152968C930DCCD8011C96F3
:101C2000ED91FC911D976480B281BC8B538040E0A4
:101C30006B2F752D862D0E94FA140E94C4256B010E
:101C40007C01E0E1CE0ED11CE11CF11C0E94C425F8
:101C50002F2DC616D706E806290B27FFF7CFF894D5
:101C600041E06C89752D862D0E94FA140E94C425CE
:101C70006B017C017894D101EAE01D92EA95E9F7C5
:101C8000F4E8F98323E22A8391014AE061E0D80174
:101C90001C968D919C911D970E94A31EFE01339668
:101CA00085E09191892728E030E005C0880F215018
:101CB000310909F40DCF87FFF9CF880F8425F7CFBD
:101CC0005489658990892189328943898F5F858FFD
:101CD00078946F935F934F933F932F939F93898152
:101CE0001F928F931F930F930E942A2E4DB75EB7BA
:101CF000465F5F4F0FB6F8945EBF0FBE4DBFA3CADD
:101D0000898584FF18C08B8187FD60C0D8015296F9
:101D10008C91F801E80FF11D758AB4E0B68B178A33
:101D20008D5FF801828B87CBF8018289E80FF11D66
:101D3000758A93E03FCFD80152968C91F801E80F55
:101D4000F11D758AB5E0EACFC818D908EA08FB0882
:101D5000F80133893323C9F08FEF830F61E070E01E
:101D600002C0660F771F8A95E2F7CB01092E000C9F
:101D7000AA0BBB0BC80ED91EEA1EFB1E04C0F694AC
:101D8000E794D794C7943A95D2F77FEFC716D1045A
:101D9000E104F10408F03FC0842F90E0AC01542F1F
:101DA0004427550F550FF4E02F9FC0011124842BB9
:101DB000952BD80152962C91F801E20FF11DC58A9E
:101DC000868B978B2D5FF801228B35CBC818D908ED
:101DD000EA08FB08F1E5CF16F5E5DF06E104F104BA
:101DE000D0F42C8130E0220F331F90E0982F882709
:101DF000990F822B932BD80152963C91F801E30F57
:101E0000F11D2F8126952F73258B868B978B3D5F38
:101E1000F801328B10CBD80152968C91F801E80F63
:101E2000F11D758A91E030CE11E006CC802F8D7FB8
:101E300080932A0280910802D81202C181E08D0DA0
:101E40008F70806180930802B5E78B16B2E09B0625
:101E500009F008F4BEC0E5E7F2E0BE8ECDB6DEB60E
:101E60008F010F5F1F4F2081222309F4E6C0E0E1BC
:101E7000F5E08491281708F0E0C030E0220F331F0E
:101E8000220F331F220F331FF901E753FD4FE49157
:101E90004DB75EB764E0E69F4019510911240FB6B3
:101EA000F8945EBF0FBE4DBF8DB79EB70196F90186
:101EB000E553FD4F4491F901E453FD4F6591749151
:101EC000FB01640F711DAC01DD8ACC8A9D8F8C8F64
:101ED0006E177F0709F482C08016910608F46EC061
:101EE000A491A53028F1A73009F068C02801BFEF00
:101EF0004B1A5B0AD801AC9082010A0D111D8016A5
:101F0000910608F45BC0B12CC12CD12CDA01AD9242
:101F1000BD92CD92DC921397612C712C14964D9248
:101F20005D926D927C921797485F5F4F3196D0CF4C
:101F30007A0184E0E80EF11C68019FEFC91AD90A02
:101F4000D8011C91912F9F77492E512C612C712C17
:101F5000012F00760036A9F117FF3EC086010F5F02
:101F60001F4FD80111978C91440C551C661C771C8F
:101F7000440C551C661C771C440C551C661C771CB5
:101F8000440C551C661C771C440C551C661C771CA5
:101F9000440C551C661C771C440C551C661C771C95
:101FA000982F9F77492A87FDDACFDA014D925D920B
:101FB0006D927C921397A70131968ACF87E00E9499
:101FC0004E36B0EE4B2A55245A94652C762CC4CF4D
:101FD000BE8CDD24D39433CB8601E7CFCC88DD885B
:101FE0008C8D9D8D40912702442331F0F901E653F9
:101FF000FD4FE491E0FF11C022533D4FF9012591BF
:102000003491F90119950FB6F894DEBE0FBECDBE1E
:1020100008151905E8F6F80121CF809128021F92D2
:102020008F93EDEAF0E1FF93EF930E942A2E0FB613
:10203000F894DEBE0FBECDBEEBCF85E00E944E36DB
:102040001B2DF2CA0F931F93CF93DF938C018091C6
:102050003F0290914002892B09F04BC060913E02F3
:1020600070E0623071052CF482E080933E0262E001
:1020700070E0E0913A02F0913B024DB75EB74150FB
:102080005F4F44275A959F01C0E0D0E0C901860FF9
:10209000971F4817590730F121969C01C115A4E0FC
:1020A000DA07A1F78E1B9F0B0E94072ED0934002E8
:1020B000C0933F0290933D0280933C020E94C1274F
:1020C000F80180819181A281B38180934102909334
:1020D0004202A0934302B0934402DF91CF911F913B
:1020E0000F910895209711F0C901DCCF80E10E9483
:1020F0004E368DE00E944E36CF93209138023091BB
:102100003902232B91F4FC01C0818C2F90E0880FC1
:10211000991F880F991F0E94072E90933902809370
:102120003802C0933702CF9108958AE00E944E365C
:1021300080913F02909140029F938F9321E03091D4
:102140002702311101C020E01F922F9320914402F9
:102150002F93209143022F93209142022F9320919D
:1021600041022F9321E0892B09F420E01F922F9345
:102170008FE890E19F938F930E942A2E8DB79EB790
:102180000C960FB6F8949EBF0FBE8DBF0895CF93E7
:10219000DF93EC01988140913702A0913802B09111
:1021A00039020BC0FD0184E0989FE00DF11D112460
:1021B000208131812617370741F09F5F941790F3F4
:1021C00080E090E0DF91CF910895988382819381A0
:1021D000DF91CF910895FC01808982FD19C0846050
:1021E000808B1092260281E08093450244815581C4
:1021F0006681778180859185A285B385840F951F3F
:10220000A61FB71F84839583A683B78381E00895B3
:1022100084898F5F848BE5CFFF920F931F93CF93B9
:10222000DF93EC01F88483E08F1508F145E450E07A
:102230006CE071E188810E947A278C018BEE90E13D
:10224000F801938382836FE070E38C810E94A92759
:10225000F80195878487FC01858180FF0BC0F80118
:10226000F18ADF91CF911F910F91FF90089583E242
:102270000E944E3682E20E944E368F929F92AF921B
:10228000BF92EF92FF920F931F93CF93DF931F9212
:102290001F92CDB7DEB77C0164E175E1FC0180815E
:1022A0000E94A9278C0189EB89831A820E94C42588
:1022B0004B015C019E012F5F3F4F42E061E0F8015E
:1022C000848595850E94A31E0E94C425F80121895A
:1022D0002F9320892F932A811F922F9323891F9256
:1022E0002F9327852F9326852F93DC01CB01881907
:1022F0009909AA09BB09BF93AF939F938F93BF928C
:10230000AF929F928F92F70180811F928F938DE5FC
:1023100090E19F938F930E942A2E0FB6F894DEBF10
:102320000FBECDBF0F900F90DF91CF911F910F91F6
:10233000FF90EF90BF90AF909F908F9008954F9235
:102340005F926F927F928F929F92AF92BF92DF9235
:10235000EF92FF920F931F93CF93DF931F921F92E1
:10236000CDB7DEB77C01FC01D08064E175E18D2D35
:102370000E94A9278C01F70180859185A285B385EC
:10238000892B8A2B8B2B99F1C8010E949733F70177
:1023900084819581A681B781F80184839583A68382
:1023A000B783F70180859185A285B385F801808781
:1023B0009187A287B38781E0828B118A108A178662
:1023C0001686138AC8010E94E9330F900F90DF919F
:1023D000CF911F910F91FF90EF90DF90BF90AF9042
:1023E0009F908F907F906F905F904F900895C8015D
:1023F0000E949733F801128A8DE289831A820E9423
:10240000C4254B015C019E012F5F3F4F42E060E01D
:10241000F801848595850E94A31E0E94C4252B0186
:102420003C0181E2F82E99EBE92E03C0FA94FF20DB
:10243000C1F0E9821A829E012F5F3F4F42E061E0C6
:10244000F801848595850E94A31E8A818F7749F0C3
:10245000813260F76D2DC8010E947816FA94F11050
:10246000E8CFF8018389882331F06D2DC8010E94DF
:102470005216F8018389F80191899F9390899F935F
:102480009A811F929F931F928F9387858F93868542
:102490008F93D301C20188199909AA09BB09BF9377
:1024A000AF939F938F93BF92AF929F928F921F9201
:1024B000DF928DE590E19F938F930E942A2E0FB6B5
:1024C000F894DEBF0FBECDBF80CF8F929F92AF92A8
:1024D000BF92FF920F931F93CF93DF938C0166EF10
:1024E00072E1FC0180810E94A927EC010E949733D0
:1024F0008F8D98A1892B09F058C0F80104811BA188
:10250000FF24F394002339F16C897D898E894F2D46
:102510000E94FA1421E001111CC014FB882780F9E5
:1025200091E08927281741F08F89988DA98DBA8D60
:10253000892B8A2B8B2B89F410711F291BA3DF9108
:10254000CF911F910F91FF90BF90AF909F908F9070
:10255000089520E0E2CFF12CD7CF0E94C4258F88C8
:10256000988CA98CBA8CDC01CB01880D991DAA1D11
:10257000BB1D888B998BAA8BBB8B8C839D83AE8371
:10258000BF838DE596E29B838A83107114601F29B7
:102590001BA3CE01DF91CF911F910F91FF90BF90B0
:1025A000AF909F908F900C94E93382E10E944E3659
:1025B000CF93DF93EC0166EF72E188810E94A92737
:1025C000F894FC01278D30A1232B69F44C815D81A7
:1025D0006E817F81FC01438F548F658F768F789455
:1025E000DF91CF91089584E10E944E36CF92DF9221
:1025F000EF92CF93DF93EC0161E088859985AA85FE
:10260000BB85892B8A2B8B2B09F460E08C810E947F
:1026100072246B01E82E44E250E066EF72E188819B
:102620000E947A27FC01C48AD58AE68A21E048857F
:1026300059856A857B85452B462B472B09F420E07D
:102640004C855D856E857F85452B462B472BB1F4E8
:1026500030E0232BFC0123A3488959896A897B89AF
:10266000478B508F618F728F6AE070E04F96DF91D9
:10267000CF91EF90DF90CF900C940B2830E1E9CF11
:10268000CF92DF92EF92FF920F931F93CF93DF933E
:102690008C0166EF72E1DC018C910E94A927EC01AC
:1026A0000E942528FC01D8011496CD90DD90ED9074
:1026B000FC901797C282D382E482F58218964D91DE
:1026C0005D916D917C911B974683578360877187DD
:1026D000F894118210828F8D98A1892B81F0A9A185
:1026E000BAA1ED93FC93FAA3E9A37894DF91CF917B
:1026F0001F910F91FF90EF90DF90CF900895FAA374
:10270000E9A3F8A3EF8F8BA182FD25C0C88AD98ADF
:10271000EA8AFB8A982F94609BA381FD10C0CE01AA
:102720000E949733CC82DD82EE82FF828DE596E2B5
:102730009B838A83CE010E94E9337894D7CF4C8162
:102740005D816E817F81872F4C155D056E058F0938
:1027500087FFE5CFF2CF488959896A897B89972F0E
:102760004C155D056E059F0997FFD0CF83E10E9450
:102770004E36CF92DF92EF92FF926B017C0109C03F
:102780000E94C425292F6C157D058E052F0927FF72
:1027900009C08091BC0087FFF3CFFF90EF90DF90DE
:1027A000CF90089580E30E944E3624EA2093BC0027
:1027B0000E94B9138091B90090E0A0E0B0E08031B0
:1027C0009105A105B10521F00897A105B10509F40E
:1027D00008958FE20E944E367F928F929F92AF9221
:1027E000BF92CF92DF92EF92FF920F931F93CF93FE
:1027F000DF93782EC62F942EB52E822E0E94C425EC
:102800006B017C0120E8C20E28E3D21E21E0E21E0B
:10281000F11CC701B6010E94D5137092BB0084E879
:102820008093BC00C701B6010E94B913AA24AA94E0
:10283000AC0ECC23B1F0C92DDB2DB12C8FEFA81A33
:10284000B80AAC0EBD1E94E8992E89918093BB0006
:102850009092BC00C701B6010E94B913AC16BD0628
:10286000A1F7C701B6010E94D513872D816080931F
:10287000BB0084E88093BC00C701B6010E94B91375
:10288000DFEFD80D882009F15801CD2F84EC982E68
:10289000CC2369F09092BC00C701B6010E94B91325
:1028A0008091BB00F50181935F01C15099F7F80158
:1028B000ED0FF11DEF0184E88093BC00C701B60164
:1028C0000E94B9138091BB00888384E98093BC0087
:1028D000DF91CF911F910F91FF90EF90DF90CF90FC
:1028E000BF90AF909F908F907F900895BF92CF92AE
:1028F000DF92EF92FF920F931F93CF93DF93D82F26
:10290000C62FB42E152F0E94C4256B017C0120E830
:10291000C20E28E3D21E21E0E21EF11CC701B6015F
:102920000E94D513D093BB0084E88093BC00C701FC
:10293000B6010E94B9130FEF0C0FCC23A9F0CB2DD9
:10294000D12F10E00F5F1F4F0C0F1D1F84E8B82E12
:1029500089918093BB00B092BC00C701B6010E9470
:10296000B913C017D107A1F784E98093BC00DF91A8
:10297000CF911F910F91FF90EF90DF90CF90BF907C
:1029800008958036A0F567FD32C0E82FE695E695FC
:10299000E695F0E0EE0FFF1FEA5EFA4FA591B491C5
:1029A000109729F1877021E030E0A90102C0440F9F
:1029B000551F8A95E2F7CA014FB7F89412963C91D9
:1029C0001297662381F0382B282F209512963C937E
:1029D000129711963C911197232311962C931197DE
:1029E0004FBFBD010895282F20953223EFCF8BE2F2
:1029F0000E944E36FB012FB7F8949281411105C019
:102A00008095892382832FBF0895892B82832FBFCE
:102A10000895FC0192899460928B1092260281E0C5
:102A20008093460280E008950F931F93CF93DF9326
:102A30008C0146E450E064E175E1FC0180810E9474
:102A40007A27EC0189E095E19B838A836FE070E34C
:102A5000F80184810E94A9279D878C87DF91CF91FF
:102A60001F910F910895FC01448155816681778102
:102A7000208580810C943928EF92FF920F931F9349
:102A8000CF93DF937C0166EB75E1DC018C910E94B2
:102A9000A9278C010E942528EC01F70184819581EA
:102AA000A681B7818A839B83AC83BD838085918512
:102AB0009F838E83F89419821882D80151968D9144
:102AC0009C915297892BB9F15396ED91FC915497B3
:102AD000D183C0835496DC93CE93539780E090E0EB
:102AE0007894892B39F4DF91CF911F910F91FF904A
:102AF000EF900895C8010E949733D80112968D91E6
:102B00009C91139781569042F1F08A819B81AC8110
:102B1000BD812CED3FE1F8013383228384839583CB
:102B2000A683B783C801DF91CF911F910F91FF90CA
:102B3000EF900C94E933F801D48BC38BD28BC18B0B
:102B400081E090E0CDCF8A819B81AC81BD81F8018D
:102B50004481558166817781272F481759076A0775
:102B60002B0B27FFD6CF80E20E944E36CF92DF920A
:102B7000EF92CF93DF93EC01488559856A857B8579
:102B80002C858C810E9439286B01E82E45E150E0AC
:102B900066EB75E188810E947A27FC01C086D186A8
:102BA000E28688899989908B87878C899D89AE89EF
:102BB000BF8983879487A587B6878CED9FE1938330
:102BC000828368E070E0CF014196DF91CF91EF9072
:102BD000DF90CF900C940B28DF92EF92FF920F932F
:102BE0001F93CF93DF93EC01D88883E08D15B0F16C
:102BF0006FE070E388810E94A9277C018AE090E061
:102C00000E94072E8C0161E08C810E94C114F801A2
:102C100060837183828360E088850E947224F8015A
:102C200063837483858360E08C850E947224F8013D
:102C3000668377838087D186F7018581982F967088
:102C400081F4F7011183008382608583DF91CF9146
:102C50001F910F91FF90EF90DF9008958BE10E94FC
:102C60004E360E94A01E0F931F93CF93DF93EC016B
:102C7000F8940E94C425088519852A853B85DC01C6
:102C8000CB01800F911FA21FB31F8C839D83AE8346
:102C9000BF83CE010E94E9337894DF91CF911F91D9
:102CA0000F910895CF93DF93EC0144969F938F93F8
:102CB0008B891F928F938F858F938E858F931F9211
:102CC0006F9388E590E19F938F930E942A2E1B8A31
:102CD0008E859F8501969F878E878DB79EB70A96B2
:102CE0000FB6F8949EBF0FBE8DBFDF91CF910895B0
:102CF000DF92EF92FF920F931F93CF93DF93CDB7A5
:102D0000DEB729970FB6F894DEBF0FBECDBF8C019A
:102D1000F62E9E012F5F3F4F89E0F90111928A95AF
:102D2000E9F782EF898349E061E0F80184859585C0
:102D30000E94A31EF801838990E09C012C5E3F4F06
:102D4000E20FF31F3B81232F207F21F1203F11F160
:102D50002FEF2483238322832183F801E80FF91FB7
:102D6000248BF80183898B5F838B8E3208F05EC0E1
:102D7000F801828981FD4FC029960FB6F894DEBF15
:102D80000FBECDBFDF91CF911F910F91FF90EF90BC
:102D9000DF9008954D81242F207FC9F52F81522F78
:102DA000507F11F0503FA1F65885503989F659856A
:102DB0005F77E52E50E25E1558F2D801A80FB91FD3
:102DC0005A8154965C938C8181838E818283822F79
:102DD00090E03F71BC01660F771F62957295707F1E
:102DE0007627607F7627362B3383880F991F880FCD
:102DF000991F80764F71482B4483F80183898B5F3C
:102E0000838B4EEFD42EDE0C8E32B8F012C0203FF2
:102E100009F09ECFC3CFC8010E949733F801828981
:102E20008B7F828BC8010E943316A6CF8EEFD82EDF
:102E3000E12C6F2DC8010E945216FEE1FE1530F400
:102E4000F801808991890196918B808BFEE1FD15B7
:102E500008F48ECF1092260281E0809346028CCF38
:102E6000CF93DF93EC016A8D662309F453C0FC0114
:102E700050E031E020E0A38DB48D4C91958D9423EA
:102E800009F0532B2F5F330F33962613F4CF2C8585
:102E9000922F952729F08D85852780959823D9F441
:102EA000888D5D8787FD03C0815070F1888F4C81CC
:102EB0005D816E817F8188859985AA85BB85840F18
:102EC000951FA61FB71F8C839D83AE83BF8381E0B0
:102ED000DF91CF910895982F909529238523822BF8
:102EE0008C879E859830E0F621E0290F2E87FE0121
:102EF000E90FF11D87871092260281E08093470237
:102F00008FEF888F5D87D3CF1092260291E0909348
:102F10004702CCCF50E0BBCFAF92BF92DF92EF928F
:102F2000FF920F931F93CF93DF93FC01A485B58588
:102F3000968547855089E18822893389F488A58858
:102F4000B6887789008D118DD28C808586279C93D9
:102F500084FD20C085FD22C086FD24C087FD26C0DB
:102F60009C93862F8295807F808768279C9364FD41
:102F70002AC065FD25C066FD1CC067FD1EC09C9370
:102F8000DF91CF911F910F91FF90EF90DF90BF9055
:102F9000AF900895EA01E88285FFDECFE901F8826B
:102FA00086FFDCCFE501788387FFDACFE801D8829E
:102FB000D7CFF501708367FFE2CFE801D882DFCF7A
:102FC000E901F882D8CFFA01E082D3CF0F931F93A3
:102FD000CF93DF938C0162E178E1DC018C910E9458
:102FE000A927FC01D80114969C91828D9817B8F4FA
:102FF000292F30E0E901CC0FDD1F2C0F3D1FEF0121
:10300000C20FD31FF801648580850E94C1146B8FA5
:103010007C8F8D8FDF91CF911F910F91089585E265
:103020000E944E36CF93FC01C481C930B8F44C2FB6
:1030300050E09A01220F331F420F531F455E5F4F2E
:1030400062E178E1FC0180810E947A27FC01C28F55
:1030500020E337E133832283CF91089586E20E94F3
:103060004E365F926F927F928F929F92AF92BF92F5
:10307000CF92DF92EF92FF920F931F93CF93DF9344
:103080008C01FC01C080D180E280F3808480958037
:10309000A680B78066246A94660E662301F1EA0171
:1030A000712CFFEF6F1A7F0A640E751E59900E94F3
:1030B000C425DC01CB018C199D09AE09BF09881517
:1030C0009905AA05BB0598F3652DC8010E948C17C8
:1030D0000E94C4256B017C01C615D70539F7F8019C
:1030E000C082D182E282F382DF91CF911F910F9152
:1030F000FF90EF90DF90CF90BF90AF909F908F9018
:103100007F906F905F9008950F931F93CF93DF93FD
:10311000EC016CEB78E188810E94A9278C01FC010D
:1031200061857285838541E00E94FA14488559853E
:103130006C81C801DF91CF911F910F910C943118D0
:103140000F931F93CF93DF93EC016CEB78E18881B1
:103150000E94A9278C01FC0161857285838540E06E
:103160000E94FA14488559856C81C801DF91CF917E
:103170001F910F910C943118CF92DF92EF92FF9232
:103180000F931F93CF93DF93EC014BE150E06CEB77
:1031900078E188810E947A278C0160E08C810E940E
:1031A0007224F80161877287838760E088850E94B6
:1031B0007224F80164877587868760E08C850E9499
:1031C0007224F8016787708B818B60E088890E9488
:1031D0007224F801628B738B848B60E08C890E946F
:1031E0007224F801658B768B878B60E0888D0E9456
:1031F0007224F801608F718F828FF8940E94C42529
:103200006B017C0160E0C8010E948C170E94C425FC
:103210007894DC01CB018C199D09AE09BF09CC8CD7
:10322000DD8CEE8CFF8C8C159D05AE05BF0548F43A
:10323000C81AD90AEA0AFB0AF801C482D582E682D2
:10324000F782DF91CF911F910F91FF90EF90DF9068
:10325000CF9008954F925F926F927F928F929F923C
:10326000AF92BF92CF92DF92EF92FF920F931F9394
:10327000CF93DF938C01562E3A01FC018080918020
:10328000A280B380C480D580E680F780EA012196D1
:10329000FA014080642D607F0E9423320E94C42581
:1032A000DC01CB0188199909AA09BB098C159D0578
:1032B000AE05BF0598F3642D6295607FC8010E943A
:1032C00023320E94C4256B017C01F8018084918423
:1032D000A284B384F1E05F1639F15A945A94852D93
:1032E00090E00296680E791E5990652D607FC801A6
:1032F0000E9423320E94C425DC01CB018C199D0958
:10330000AE09BF0988159905AA05BB0598F3652D77
:103310006295607FC8010E9423320E94C4256B0120
:103320007C01C615D70501F7F801C082D182E2827F
:10333000F382DF91CF911F910F91FF90EF90DF907B
:10334000CF90BF90AF909F908F907F906F905F9045
:103350004F900895CF92DF92EF92FF92CF93DF9339
:10336000FC01A085B18582858C93968581E08927B3
:103370008687C82FC170C688D788E08CF18C978566
:103380009F5FD1899D1708F05FC0892F869586952C
:103390008695DF01A80FB11D5A962C9130E0892F38
:1033A000877002C0359527958A95E2F72170B7019D
:1033B000A601C217A9F033C0892F869586958695F8
:1033C000DF01A80FB11D5A962C9130E0892F87702C
:1033D00002C0359527958A95E2F72170C2131FC068
:1033E0004C0D5D1D6E1D7F1D9F5F9D1728F385EAA7
:1033F0009CE19383828384819581A681B781480F64
:10340000591F6A1F7B1F448355836683778381E03E
:10341000DF91CF91FF90EF90DF90CF900895978745
:1034200084819581A681B781480F591F6A1F7B1F30
:10343000448355836683778381E0DF91CF91FF904A
:10344000EF90DF90CF900895B701A601D0CFCF9233
:10345000DF92EF92FF920F931F93CF93DF93EC01D4
:10346000E885F9858A8580830E94C4253E8521E010
:1034700023272E872F852F5F2F87213009F45CC0EB
:103480002530E0F40C811D812E813F814A895B89C2
:103490006C897D89DB01CA01800F911FA21FB31FB8
:1034A0008C839D83AE83BF8381E0DF91CF911F9199
:1034B0000F91FF90EF90DF90CF900895CC80DD804A
:1034C000EE80FF80AB01BC014C195D096E097F09DC
:1034D0008E899F89A88DB98D481B590B6A0B7B0B70
:1034E000DB01CA010296A11DB11DB7FD34C0B5951F
:1034F000A79597958795B595A795979587950A89E7
:103500001B892C893D89800F911FA21FB31F8E8BB1
:103510009F8BA88FB98F2AEA39E13B832A834C0D10
:103520005D1D6E1D7F1D840F951FA61FB71F8C8309
:103530009D83AE83BF83B8CF0C811D812E813F81D7
:10354000AB01BC01401B510B620B730B4E8B5F8BAD
:10355000688F798F9BCFDB01CA010596A11DB11D34
:10356000C6CFEF92FF920F931F93CF93DF937C010F
:1035700062E57BE1FC0180810E94A927EC011E85A8
:1035800011FF07C0DF91CF911F910F91FF90EF9036
:103590000895F701048160857185F4840B3008F08B
:1035A00045C0FAE0FF1508F441C0402F50E04A96AC
:1035B0000E94A8371F86117312601E87802F880F04
:1035C000880F880F898BFF0CFF0CFF0CF88A0023F3
:1035D00049F08A8D8F738A3229F487E29AE19B83BE
:1035E0008A830CC08A899B89AC89BD898E8B9F8B0D
:1035F000A88FB98F8AEA99E19B838A83F8940E9405
:10360000C425DC01CB018058934FAF4FBF4F8C8353
:103610009D83AE83BF83CE010E94E9337894DF910E
:10362000CF911F910F91FF90EF90089587E20E9434
:103630004E360F931F93CF93DF938C0162E178E1B5
:10364000DC018C910E94A927EC01D8011496EC9121
:103650008F898E0F8F8BF8948E85E817D0F48E1B90
:10366000F0E03F96EC0FFD1FDE011F962FEF280FB5
:1036700030E0205F3F4F2C0F3D1F91919D93A2178B
:10368000B307D9F78E877894DF91CF911F910F916F
:1036900008951E868EEF888F7894DF91CF911F91C9
:1036A0000F9108957F928F929F92AF92BF92CF9287
:1036B000DF92EF92FF920F931F93CF93DF93EC0172
:1036C00044E250E062E57BE188810E947A278C0128
:1036D00078848C809D80AE80BF80CC84DD84EE8435
:1036E000FF8461E0711001C060E0882D0E94C11468
:1036F000F80163877487858761E08C2D0E947224AE
:10370000F80160877187828788899989AA89BB892E
:10371000828B938BA48BB58B711018C091E08C14A5
:103720009D04AE04BF04C1F080E0892BF8018687B8
:10373000DF91CF911F910F91FF90EF90DF90CF908D
:10374000BF90AF909F908F907F90089591E18C14DF
:103750009D04AE04BF0441F780E2E7CF0F931F93AF
:10376000CF93DF938C0162E178E1FC0180810E94BC
:10377000A927EC010E949733F80184819581A681E5
:10378000B7818C839D83AE83BF83408551856285DD
:103790007385488759876A877B8780898D878C875F
:1037A0001E861F8A8EEF888F8485898F87FD10C0C3
:1037B000452B462B472B29F4DF91CF911F910F9179
:1037C0000895CE01DF91CF911F910F910C94E933B1
:1037D00084E20E944E36CF93DF93EC018E8585FD07
:1037E0000DC0688579858A8541E00E94FA148E852E
:1037F000807381608E87DF91CF910895E885F98588
:103800008A852FB7F8949281982B92839181892B86
:1038100081832FBF8E85807381608E87DF91CF91EA
:103820000895CF93DF93FC01A385B4855C918785D0
:10383000982F977021E030E001C0220F9A95EAF7A7
:10384000982F969596959695DF01A90FB11D5A96DA
:103850009C915A9745854523E1F0292B5A962C9344
:103860008F5F90898917E8F4878744815581668145
:10387000778186899789A08DB18D840F951FA61FAA
:10388000B71F84839583A683B78381E0DF91CF91AF
:103890000895209529235A962C938F5F9089891734
:1038A00018F3EF01CF010E94EB1B8E8588608E8795
:1038B0001092260281E08093480280E0DF91CF9150
:1038C0000895CF93DF93FC01A385B4859C918585F2
:1038D0008923E9F0868584608687878591E0980F43
:1038E0009787803408F54481558166817781868980
:1038F0009789A08DB18D840F951FA61FB71F848354
:103900009583A683B78381E0DF91CF910895868563
:1039100082FFE3CF178681E19CE193838283CF010D
:10392000DF91CF910C94111CEF01108ACF010E94FE
:10393000EB1B8E8588608E871092260281E0809333
:10394000480280E0DF91CF9108950F931F93CF93AA
:10395000FC01C089CC23E9F1868585FD23C017864B
:1039600081E69CE19383828386899789A08DB18DBE
:10397000880F991FAA1FBB1F880F991FAA1FBB1F63
:103980004481558166817781840F951FA61FB71FDB
:1039900084839583A683B783C1E08C2FCF911F9139
:1039A0000F910895A385B48595852FB7F89484FF6A
:1039B00021C012968C911297892B909512968C9318
:1039C000129711968C911197982311969C932FBF63
:1039D000C6CF8C010E94EB1BF80186858860868724
:1039E0001092260281E0809348028C2FCF911F9184
:1039F0000F91089512968C91129790958923DECF9E
:103A0000AF92BF92CF92DF92EF92FF920F931F93EC
:103A1000CF93DF93CDB7DEB77C01ADB6BEB6FC0168
:103A2000C08064E67DE18C2D0E94A927F7016481A6
:103A300040855185D4842DB73EB72D1931090FB675
:103A4000F8943EBF0FBE2DBFEDB7FEB731967F0194
:103A50008F012D2DFC0180810E94EC13FF92EF92CB
:103A60001F92DF921F92CF9282E690E19F938F93F5
:103A70000E942A2E2DB73EB7285F3F4F0FB6F8940D
:103A80003EBF0FBE2DBF0FB6F894BEBE0FBEADBE7B
:103A9000DF91CF911F910F91FF90EF90DF90CF902A
:103AA000BF90AF900895CF93DF93EC0164E67DE182
:103AB00088810E94A927488559856C81FC018081F5
:103AC000DF91CF910C947614EF92FF921F93CF93D6
:103AD000DF93EC018C85182F1F7741E050E064E6FE
:103AE0007DE188810E947A277C018C819D81AE8155
:103AF000BF81892B8A2B8B2BF1F48091BC0082FD36
:103B000010C061E089E10E94722461E088E10E94B6
:103B100072241092B90088E48093B80084E0809306
:103B2000BC00812F880FF7018083DF91CF911F9117
:103B3000FF90EF90089581E30E944E360F931F93FC
:103B4000CF93DF938C016DE47EE1FC0180810E94C4
:103B5000A927EC010E949733F80184819581A68101
:103B6000B7818C839D83AE83BF8380859185A28539
:103B7000B38588879987AA87BB87892B8A2B8B2B4C
:103B800029F4DF91CF911F910F9108958485958538
:103B9000A685B7858C879D87AE87BF8780899189E9
:103BA000A289B389888B998BAA8BBB8BCE01DF91BD
:103BB000CF911F910F910C94E9334F925F926F92C6
:103BC0007F928F929F92AF92CF92EF92FF920F933C
:103BD0001F93CF93DF93EC014B01270138011F9214
:103BE000CF927F926F925F92EF925F934F933F934A
:103BF0002F931F92AF9287E690E19F938F930E943D
:103C00002A2E8DB79EB70E960FB6F8949EBF0FBEA4
:103C10008DBF88819981AA81BB81E816F9060A07C0
:103C20001B0750F0F40180819181A281B3818E1530
:103C30009F05A007B10720F480912702882379F01F
:103C4000DF91CF911F910F91FF90EF90CF90AF90A8
:103C50009F908F907F906F905F904F9008958DE12F
:103C60000E944E36FC011092260281E080934902A8
:103C700087898160878B44815581668177818085C2
:103C80009185A285B385840F951FA61FB71F8483D6
:103C90009583A683B78381E00895FF920F931F93C6
:103CA000CF93DF93EC01F88483E08F15E0F048E1D7
:103CB00050E06DE47EE188810E947A278C0182E3E6
:103CC0009EE1F801938382836FE070E38C810E9410
:103CD000A927F801958B848BF68ADF91CF911F91EC
:103CE0000F91FF9008958EE10E944E36CF92DF92A1
:103CF000FF920F931F93CF93DF93EC016FE070E37C
:103D00008C810E94A9276C01F8840F2D10E0A80176
:103D10004D5F5F4F66E77EE188810E947A27FC0154
:103D2000D182C082F2826C857D85A8010396DF91E5
:103D3000CF911F910F91FF90DF90CF900C94A837F7
:103D40008BE10E944E366F927F928F929F92AF923C
:103D5000BF92CF92DF92EF92FF920F931F93CF9378
:103D6000DF934C01E62E142F6901DC0115967C903F
:103D70001597872D867009F451C071FC39C0F40184
:103D8000908181819CBD8DBDF72DF1706F2E70FCEF
:103D9000C8C0EE2009F49CC08FEF810F112351F0B1
:103DA000F60190819EBD0DB407FEFDCF9EB59193A7
:103DB0008150B8F7662091F1072D06950695069576
:103DC000402F40954170D40112966D917D918C9158
:103DD000DF91CF911F910F91FF90EF90DF90CF90E7
:103DE000BF90AF909F908F907F906F900C94FA143B
:103DF000ED91FC91418542706681778180850E94BA
:103E0000FA14B72DB1706B2E70FC17C0D401CD9190
:103E1000DC91AA24AA94A10E111126C0DF91CF91A2
:103E20001F910F91FF90EF90DF90CF90BF90AF90D8
:103E30009F908F907F906F900895072D069506951F
:103E40000695402F4170F4016281738184810E9444
:103E5000FA14D401CD91DC91AA24AA94A10E1123C5
:103E600009F4AECF66246394B12C8FEFA81AB80A78
:103E7000AC0CBD1CD601FC9008E010E0898580FFE9
:103E800035C0EE81FF81888580834F2D40786B811E
:103E90007C818D810E94FA14FF0CEE81FF81888560
:103EA0008083110FE881F98190818A81892391E0D3
:103EB00009F490E0192B015009F7EE2011F0F601FA
:103EC0001083FFEFCF1ADF0AAC14BD0499F672CF4E
:103ED000F6019601210F311D2E173F0709F46ACF15
:103EE00081918EBD0DB407FEFDCFF6CF4F2D4078EA
:103EF0006B817C818D810E94FA14FF0CEE81FF8121
:103F000088858083110FE881F98190818A818923D6
:103F100091E009F490E0192BEE81FF818885808380
:103F2000CACF73FA442740F9F40162817381848116
:103F30000E94FA14662463942CCFCF93DF93EC0194
:103F40006FE070E388810E94A927288539854C811C
:103F500060E0DF91CF910C94A31EFF920F931F930B
:103F6000CF93DF93EC0118816FE070E3812F0E9403
:103F7000A9270C81F884C9852F2D3C2F402F61E0A3
:103F80000E94A31ECF93FF921F920F931F921F9325
:103F90008CE690E19F938F930E942A2E8DB79EB757
:103FA00008960FB6F8949EBF0FBE8DBFDF91CF91DC
:103FB0001F910F91FF9008950F931F93CF93DF935D
:103FC000FC01A189B2898D919C911197928B818B73
:103FD00016968D919C911797C085D18522852111C8
:103FE0003FC02FB7F894AC015527598348832FBFA2
:103FF00020914A0230914B0211963C932E93B0933C
:104000004B02A0934A02A189B289109759F52785DE
:1040100030898217930741F083859485A585B685FD
:104020000097A105B10531F480E0DF91CF911F9198
:104030000F9108954481558166817781840F951F82
:10404000A61FB71F84839583A683B78381E690E27A
:104050009383828381E0DF91CF911F910F91089527
:104060008883C6CF12964D915D916D917C91159785
:10407000278530898217930741F083859485A5852C
:10408000B6850097A105B10551F444835583668335
:10409000778381E0DF91CF911F910F910895048183
:1040A000158126813781800F911FA21FB31F2B2FEF
:1040B00084179507A607270B27FFE7CF80E20E940A
:1040C0004E3681E20E944E362F923F924F925F927F
:1040D0006F927F928F929F92AF92BF92CF92DF9218
:1040E000EF92FF920F931F93CF93DF9300D01F9215
:1040F0001F92CDB7DEB77C012DB73EB73D832C8331
:1041000064E67DE1DC018C910E94A9279B838A8370
:10411000F701F481F983D70118966D907C90199777
:104120001C968D919D910D90BC91A02D80FD6BC032
:104130001C012D015694479437942794F701E08889
:10414000F188C22CD12CF9810F2F10E0C8018C0D01
:104150009D1D2DB73EB7281B390B0FB6F8943EBFF7
:104160000FBE2DBF8DB79EB701965C01A801B301AC
:104170000E94A8374501800E911E8401222DA301C3
:104180006981AA81BB818C910E94EC13C114D10476
:1041900099F0CE0CDF1CF4019601D7018D917D01C1
:1041A0008095908189238083D9019D919D01892BE0
:1041B0008193CE14DF0489F76981620DA501EA813C
:1041C000FB8180810E947614EC81FD810FB6F8940A
:1041D000FEBF0FBEEDBF0F900F900F900F900F908E
:1041E000DF91CF911F910F91FF90EF90DF90CF90D3
:1041F000BF90AF909F908F907F906F905F904F9007
:104200003F902F9008958FE10E944E361F93CF93D9
:10421000DF93EC01162FAC89BD891097B9F0129687
:10422000ED91FC9113978D919C9111979D8B8C8BA7
:1042300011961C921E9213961C921E921297612F39
:10424000CD011995AC89BD89109749F710922602C6
:1042500081E080934C02DF91CF911F910895FC0182
:104260003897968990FF08C0608D678B9A7F94601D
:10427000968BCF010E94062180E00895FC0186897B
:104280008460868B1092260281E080934C024481E8
:1042900055816681778180899189A289B389840F4C
:1042A000951FA61FB71F84839583A683B78381E0DC
:1042B0000895FC01A085B1859C9182858923D1F068
:1042C000818D80958170C9F4838D815031F1838F08
:1042D000448155816681778187859089A189B289DA
:1042E000840F951FA61FB71F84839583A683B7836A
:1042F00081E00895818D817039F389E899E2938393
:10430000828383899489A589B68984839583A683CA
:10431000B783828D838F81E00895A789B08D5696EB
:104320009C915697892F817090FFE3CF648D5796AB
:104330006C9357979A7F946056969C935697CD01AD
:104340000E94062180E00895FC0180917A0086FF9A
:104350000EC084819581A681B7818853984FAF4F55
:10436000BF4F84839583A683B78381E00895828DB0
:1043700090910902981781F09F3F59F780930902A5
:10438000982F987090937B008770806480937C0056
:1043900087ED80937A00DDCF8FEF80930902209123
:1043A000780030917900858D968D891780F5448944
:1043B0005589240F351F8F5F358B248B858F891787
:1043C00060F18689978928173907C8F1808D918D0A
:1043D00082179307A0F1138E1092260281E080933A
:1043E0004D02408951896289738980859185A285B2
:1043F000B385840F951FA61FB71F808B918BA28B4F
:10440000B38B84839583A683B78381E0089581E08D
:10441000358B248B858F8917A0F644815581668161
:10442000778184859585A685B785840F951FA61FFE
:10443000B71F84839583A683B78381E00895838D16
:104440008F5F838F948D891738F2809127028111B5
:10445000C2CF8AE10E944E36EF92FF921F93CF9314
:10446000DF937C01FC01108163EA72E2812F0E94DC
:10447000A927EC01F8948E8980FF09C0F7016481B7
:104480006F8B8A7F84608E8BCE010E940621CE01C5
:104490000E949733CE0108960E9497331E8A8F8917
:1044A00078941F921F921F921F921F928F931F92B8
:1044B0001F921F921F9386E790E19F938F930E9414
:1044C0002A2E8DB79EB70C960FB6F8949EBF0FBEDE
:1044D0008DBFDF91CF911F91FF90EF900895CF9303
:1044E000FC01C08169E373E28C2F0E94A927FC01C3
:1044F000F894818D33894489558966897894A0859B
:10450000B1852C919285922321E009F420E01F923D
:104510002F936F935F934F933F93869581701F9274
:104520008F931F92CF938BE790E19F938F930E947D
:104530002A2E8DB79EB70C960FB6F8949EBF0FBE6D
:104540008DBFCF91089549E150E063EA72E2FC012A
:1045500080810E947A272EE331E2FC01338322839B
:104560002FE231E2338722870895EF92FF920F9373
:104570001F93CF93DF938C0163EA72E2FC01808189
:104580000E94A927EC01F8948E8980FF13C07E0158
:10459000F8E0EF0EF11CC7010E949733F801848107
:1045A0009581A681B7818C879D87AE87BF87C7011C
:1045B0000E94E9337894DF91CF911F910F91FF9082
:1045C000EF9008950F931F93CF93DF938C0169E3CE
:1045D00073E2FC0180810E94A927EC010E949733BD
:1045E000F80184819581A681B7818C839D83AE83F8
:1045F000BF8380859185A285B3858F87988BA98B92
:10460000BA8B84858A8F882361F1F80140895189AA
:10461000628973894B875C876D877E8729E839E2D9
:104620003B832A838B8F84899589A689B789892BB7
:104630008A2B8B2BA1F482E0898F63EA72E2F80166
:10464000808D0E94A927988F8F8BF801848D8C8F85
:10465000CE01DF91CF911F910F910C94E93383E04C
:10466000EBCF188E1F8A198EDF91CF911F910F917A
:1046700008950F931F93CF93DF93EC014DE150E02A
:1046800069E373E288810E947A278C0168858C81B6
:104690000E94C114F801608771878287DF91CF91F2
:1046A0001F910F910895CF93DF93EC010E949733F0
:1046B000CE0108960E949733EC89FD89309751F01E
:1046C000908181811382128211821082E92FF82F4A
:1046D0003097B1F71D8A1C8A188E1F8A1E8ADF91B7
:1046E000CF9108950F931F93CF93DF938C0163EACB
:1046F00072E2FC0180810E94A927EC01F8940E94DB
:10470000532381E08E8BF80184819581A681B78146
:104710008C839D83AE83BF8380859185A285B3857D
:10472000888B998BAA8BBB8B892B8A2B8B2B19F0AF
:10473000CE010E94E933F8018485888F7894DF9157
:10474000CF911F910F910895B0990FC080914F02A2
:1047500090915002019610920502109204029093DB
:1047600007028093060281E0089581E086BB809174
:104770004F029091500201969093500280934F0205
:1047800020E030E830930502209304029093070262
:104790008093060281E00895CF93DF93FC0184812A
:1047A0009581A681B7814489558966897789C58DA8
:1047B000D68D3881C42FC170278D232331E009F4B1
:1047C00030E0C31761F04F5F5F4F6F4F7F4F448BF7
:1047D000558B668B778B808F918FA28FB38F40899B
:1047E000518962897389272F481759076A072B0B4C
:1047F00027FF18C0248D2160248F44855585668548
:104800007785840F951FA61FB71F808B918BA28B76
:10481000B38B1092260281E080934E0284819581B1
:10482000A681B7814085518562857385840F951F68
:10483000A61FB71F84839583A683B78381E0DF918A
:10484000CF9108950F931F93CF93DF938C0164E56D
:1048500074E2FC0180810E94A927EC010E94973339
:10486000F80184819581A681B7818C839D83AE8375
:10487000BF834085518562857385488759876A87DC
:104880007B8744855585668577854C875D876E87F0
:104890007F87888B998BAA8BBB8BCE01DF91CF91C1
:1048A0001F910F910C94E9330F931F93CF93DF93D4
:1048B000EC0140E250E064E574E288810E947A27CE
:1048C0008C0168858C810E94C114F801658F768FF8
:1048D000878F8CEC93E293838283DF91CF911F913A
:1048E0000F910895803678F5E82FE695E695E695E0
:1048F000F0E0EE0FFF1FEA5EFA4FA591B49110971A
:1049000011F1877021E030E0A90102C0440F551F6A
:104910008A95E2F7CA013FB7F89412962C91129744
:1049200061110FC04095242312962C931297119673
:104930002C911197282B11962C9311973FBFBD01F5
:104940000895242BF1CF8CE20E944E361F920F92D5
:104950000FB60F9211240BB60F92EF92FF920F93A6
:104960001F932F933F934F935F936F937F938F93F7
:104970009F93AF93BF93CF93DF93EF93FF930DC0BC
:104980007A0180918400909185008E199F0997FD8E
:104990007CC07894B2999AC0F894C0912202D091C8
:1049A0002302EA81FB81309709F0ADC0EA8DFB8DCF
:1049B0002C8D20838E859F85019709F4C1C09F8728
:1049C0008E8788859985AA85BB854C815D816E819E
:1049D0007F81480F591F6A1F7B1F4C835D836E8345
:1049E0007F8320832CA525FF0EC00C851D85012EFD
:1049F000000C220B330B800F911FA21FB31F88875F
:104A00009987AA87BB87E881F9810481158126816E
:104A10003781872F401751076207830B87FDB0CF7F
:104A20007801F0932302E0932202A0912402B09136
:104A3000250214960D911D912D913C911797872F6A
:104A4000401751076207830B87FFFD01DF010190CB
:104A5000F081E02D0481158126813781872F401751
:104A600051076207830B87FFF1CFF983E883CD936A
:104A7000DC93D0932502C09324028091840090910E
:104A800085008E199F0997FF84CF863A9F4F0CF0BF
:104A90006AC0F0928900E0928800FF91EF91DF9167
:104AA000CF91BF91AF919F918F917F916F915F91C6
:104AB0004F913F912F911F910F91FF90EF900F9089
:104AC0000BBE0F900FBE0F901F901895F894809119
:104AD0008400909185009701281B390B2038314CB8
:104AE000DCF12091260227FF43C09C01205C304E60
:104AF00030938B0020938A0024E026BB909389009A
:104B0000809388003ECFCE0119954C815D816E81E6
:104B10007F81811178CFE881F981E480F580F0937D
:104B20002302E09322028091240290912502C8176B
:104B3000D90709F026CFF0932502E093240221CF74
:104B4000CE010E94482CEA8DFB8D9C8D90834C8178
:104B50005D816E817F81DDCF209127022111C1CF40
:104B60008AE20E944E367894B299B0CFF89409CF79
:104B70009C012854344F30938B0020938A0024E00A
:104B800026BB7C01F39485CF2FB7F8946091840005
:104B90007091850080914F0290915002B09902C0AF
:104BA0002FBF08952FBF7F3FE1F3019608957894BA
:104BB0000E9467342FEF260F6623C1F0FC018FEFB0
:104BC0009FEF31918327082E8295807F8025092EC3
:104BD000982F82958F700826869598278927880FA9
:104BE000880F880F8025215060F708958FEF9FEF81
:104BF00008950F931F93FC01A489B58986898C932E
:104C000093A181E0892783A34481558166817781BF
:104C100080FF12C00085118522853385400F511F0A
:104C2000621F731F82FD12C044835583668377839E
:104C300081E01F910F91089504851585268537859C
:104C4000400F511F621F731F82FFEECF0089118931
:104C500022893389872F401751076207830B87FD0D
:104C6000E3CF8DE596E293838283B901A801448363
:104C700055836683778381E01F910F91089508958E
:104C8000FC018081A481B581408551856285738551
:104C90009FB7F894813061F0823019F04C939FBF38
:104CA00008954D935D936D937C9313979FBF0895E3
:104CB00011965C934E939FBF08958F929F92AF92EF
:104CC000BF92CF92DF92EF92FF921F93CF93DF9329
:104CD000EC01EF8CF8A0E114F10409F4F0C0F70145
:104CE0008081918198A38F8F86809780A084B184E2
:104CF00011E081149104A104B10409F4A1C06C89EC
:104D00007D898E89412F0E94FA1480914A029091E8
:104D10004B02F70191838083F0924B02E0924A02AA
:104D200081149104A104B104E9F08B8D9C8DAD8DAB
:104D3000BE8D88169906AA06BB06A0F44F89588D29
:104D4000698D7A8D411551056105710509F45BC0C6
:104D50008C819D81AE81BF81480F591F6A1F7B1FC7
:104D6000166022C08BA131E081149104A104B1042A
:104D700009F068C084FB992790F921E09227391740
:104D800009F443C04F89588D698D7A8D41155105BD
:104D900061057105D1F18C819D81AE81BF81480F84
:104DA000591F6A1F7B1F1460EF8DF8A1309709F01F
:104DB00077C02BA1488B598B6A8B7B8B2071212B61
:104DC0002BA311FF5FC0880D991DAA1DBB1D12FDED
:104DD00052C029EF35E23B832A838C839D83AE83C7
:104DE000BF8388869986AA86BB868B8D9C8DAD8D68
:104DF000BE8D88199909AA09BB098C879D87AE8742
:104E0000BF8781E011C012608BA1EF8DF8A13097B0
:104E1000D9F4188A198A1A8A1B8A8071812B8BA36C
:104E2000812F827011FD34C0DF91CF911F91FF90CF
:104E3000EF90DF90CF90BF90AF909F908F900895AC
:104E400010E05DCF30E096CF42815381648175815F
:104E5000488B598B6A8B7B8B8071912F9460892B47
:104E60008BA311FF0FC08C819D81AE81BF81880D06
:104E7000991DAA1DBB1D2B2F84179507A607270B6D
:104E800027FDA7CF4C835D836E837F8381E0CCCFEA
:104E900040E050E0BA018C819D81AE81BF8193CF0B
:104EA000C280D380E480F580872F4C155D056E05A8
:104EB0008F0987FD07C08BA1B701A601C9CF85E186
:104EC0000E944E3683E10E944E36FC0185818F930D
:104ED00084818F9380811F928F938AE890E19F93C2
:104EE0008F930E942A2E0F900F900F900F900F908B
:104EF0000F900895CF93DF9390913702891730F583
:104F0000C82FD0E0CC0FDD1FCC0FDD1FE0913802A1
:104F1000F0913902EC0FFD1F80819181892BB1F452
:104F200080913F0290914002892B81F471836083CC
:104F3000CA010E94072E2091380230913902C20F17
:104F4000D31F9B838A83DF91CF9108958BE00E94CA
:104F50004E3690913702891788F4E0913802F0912B
:104F6000390294E0899FE00DF11D11248081918127
:104F70008617970719F48281938108958CE00E9427
:104F80004E36CF92DF92EF92FF92CF93DF93C09194
:104F90003F02D09140022097B9F121976E01E12C98
:104FA000F12CA0913E02B0E02097D9F020E030E053
:104FB00040E050E0BA0180913C0290913D02FC013A
:104FC000E20FF31F4F5F5F4F6F4F7F4F2A0F3B1F63
:104FD000820F931F918380834C155D056E057F05BD
:104FE00050F380913C0290913D02CA9FF001CB9F0B
:104FF000F00DDA9FF00D1124E80FF91F11821082D5
:1050000090934B0280934A02DF91CF91FF90EF90F3
:10501000DF90CF900895FC011382128211821082DA
:105020006F3F710509F07CF480913F02909140023E
:10503000892B49F480913E0290E08617970714F47B
:1050400060933E0208950E9486292FB7F8948091BC
:105050004A0290914B02009749F0FC014081518136
:1050600050934B0240934A022FBF08958FE00E9455
:105070004E36CF92DF92EF92FF921F93CF93DF9342
:105080006A017B016EE275E0FB019491981749F08B
:10509000675F7F4FF5E06E3B7F07B1F784E30E94C7
:1050A0004E36FB013896949191FF1AC030EAC31630
:1050B0003FE5D306E104F10408F483C0C0E8CC1650
:1050C000CEE7DC06C1E0EC06F10408F090C0D0E4C5
:1050D000CD16DFEBDD06E104F104C8F414E022C0D4
:1050E000F8EBCF16F7E4DF06E104F10490F0A0EC52
:1050F000CA16AEE3DA06A1E0EA06F10408F475C0C8
:10510000C114BBEFDB06B4E0EB06F10438F315E0A5
:1051100009C037EFC31638E0D306E104F10408F004
:105120005FC011E0FB013396A591B491FB01359668
:10513000C591D491FB0137963491E82FE695E69519
:10514000E695F0E0EE0FFF1FEA5EFA4F45915491AD
:105150008770E1E0F0E07F0101C0EE0C8A95EAF78C
:10516000FB013196C590D490892F8170A038B1058C
:1051700009F44BC0EFB7F8949881977011F01913A8
:1051800041C0188381112EC09FB7F894622F70E040
:10519000E601798368839FBF9C913160392B3C93F2
:1051A000DA0111969C911197E92A1196EC92EFBFC2
:1051B000B601DF91CF911F91FF90EF90DF90CF90DC
:1051C0000895A8EDCA16A7E2DA06E104F10468F42E
:1051D000B7EFCB16B8E0DB06E104F10408F4A1CF89
:1051E00012E0A0CFE6012883D7CF13E09BCFC114F4
:1051F000EBEFDE06E4E0EE06F10410F416E092CFE9
:1052000017E090CF82E30E944E3683E30E944E3631
:10521000DC012C911496ED91FC9115973FB7F89411
:105220002130E9F02230B1F0808190E0A0E0B0E0E0
:105230003FBFBF93AF939F938F9385E890E19F9378
:105240008F930E942A2E0F900F900F900F900F9027
:105250000F90089580819181A281B381E9CF8081EF
:105260009181A0E0B0E0E4CFCF92DF92EF92FF9285
:10527000FC0140815181628173812481E6EFFFE06E
:1052800085919591A591B491481759076A077B07B5
:1052900070F56A017B01C20ED11CE11CF11C8C155A
:1052A0009D05AE05BF0500F5841B90E09A012254D0
:1052B0003A4F3F932F939F938F937F936F935F9377
:1052C0004F9383EA90E19F938F930E942A2E8DB78C
:1052D0009EB70A960FB6F8949EBF0FBE8DBFFF9083
:1052E000EF90DF90CF900895822F90E0DFCF80E0A5
:1052F00090E0DCCF80912702882329F0823011F0E2
:1053000010922702089582E00E944E368EE00E949D
:105310004E360F931F93FC01A085B1859C910481AB
:105320001581268137814385548565857685400FB3
:10533000511F621F731F8285892361F0818D8095C3
:10534000817059F0448355836683778381E01F9190
:105350000F910895818D8170A9F7438B548B658BD4
:10536000768B89E591E293838283CF011F910F9120
:105370000C945921CF93DF93EC0162EF7BE288819B
:105380000E94A927FC018C819D81AE81BF81892B60
:105390008A2B8B2B51F420E0F89494A59D7F922BBF
:1053A00094A77894DF91CF91089522E0F5CF0F93E1
:1053B0001F93CF93DF938C01EC01A897CE010E943D
:1053C00097331C821D821E821F821A8A1B8A1C8AA6
:1053D0001D8A88A199A1AAA1BBA12CA54E855F8594
:1053E0006889798924FD04C0769567955795479516
:1053F000841B950BA60BB70BB7FD40C0B095A095CD
:10540000909581959F4FAF4FBF4F88A399A3AAA3B3
:10541000BBA31E861F86188A198A247128602CA7B0
:105420006D8D7E8D8F8D40E00E94FA144CA54470E6
:105430006A8D7B8D8C8D0E94FA14D8011497ED91A2
:10544000FC9111973097A9F040914A0290914B023C
:1054500001C0F9012081318140839183F0934B0297
:10546000E0934A024E2F9F2F2115310591F71D928F
:105470001C92DF91CF911F910F910895B095A09547
:10548000909581959F4FAF4FBF4FB8CF0F931F930C
:10549000CF93DF938C0162EF7BE2FC0180810E945D
:1054A000A927EC0163EA72E2F80184810E94A9272E
:1054B000BE01685D7F4F4FB7F8942AA53BA5232B0B
:1054C00089F427ED39E23BA72AA7FC012489358915
:1054D00039A728A7758B648B4FBFDF91CF911F91A0
:1054E0000F91089589E10E944E36CF93DF93EC012E
:1054F00062EF7BE288810E94A927FC018C819D815B
:10550000AE81BF81F8944685578560897189452BA6
:10551000462B472B79F484839583A683B783828BAC
:10552000938BA48BB58B84A5877F84A77894DF9118
:10553000CF91089586E10E944E36CF93FC01C08141
:1055400062EF7BE28C2F0E94A927FC01F89480A1D6
:1055500091A1A2A1B3A124A546855785608971892F
:1055600024FD04C07695679557954795841B950B48
:10557000A60BB70BB7FF07C0B095A0959095819586
:105580009F4FAF4FBF4F7894B054BF93AF939F934B
:105590008F931F92CF9380E890E19F938F930E9407
:1055A0002A2E8DB79EB708960FB6F8949EBF0FBEF1
:1055B0008DBFCF9108954F925F926F927F92BF926D
:1055C000CF92DF92EF92FF920F931F93CF93DF93CF
:1055D000FC01B08060EB7BE28B2D0E94A927EC01DF
:1055E0004D805E806F807884C984DA84EB84FC848B
:1055F0000E94C425DC01CB0184199509A609B709CD
:105600008C159D05AE05BF0568F40E94C425DC011C
:10561000CB0184199509A609B7098C159D05AE051E
:10562000BF0598F3CD84DE84688179818A81A09159
:105630008400B09185000B811C819E01215F3F4F4A
:105640007901C20ED31ECE14DF0409F457C0F7014E
:1056500091917F0128E013C0F8944091840050910B
:105660008500FB01808380837894FA01EA1BFB0BA1
:10567000E017F107D8F4990FDA01215021F397FFD1
:10568000EBCFF8944091840050918500FB0180831A
:105690007894FA01EA1BFB0BE017F10738F4990F35
:1056A000F894FB0180837894DA01E7CF40E00E9410
:1056B000FA140E94C4256D837E838F83988780E0CF
:1056C0001F928F931F92BF928AE390E19F938F93D3
:1056D0000E942A2E0F900F900F900F900F900F9016
:1056E000DF91CF911F910F91FF90EF90DF90CF90BE
:1056F000BF907F906F905F904F9008950E94C42557
:105700006D837E838F83988781E0DACF0F931F9319
:10571000CF93DF93EC0160EB7BE288810E94A927A5
:105720000C811D812E813F8148856C857D8517FD0B
:1057300014C050E0DA01A00FB11FEC01ED85FE8529
:10574000EA17FB0750F0015F1F4F800F911FDF9199
:10575000CF911F910F910C94A83788E20E944E368A
:105760006F927F928F92CF92DF92EF92FF92CF93C0
:10577000DF93EC0160E08C810E9472243B01882E53
:10578000C884D984EA84FB84D7FC24C0A601415F85
:105790005F4F60EB7BE288810E947A27FC01608288
:1057A00071828282D686C5868C859D85948383830B
:1057B00088899989AA89BB8981879287A387B487B9
:1057C000DF91CF91FF90EF90DF90CF908F907F90FF
:1057D0006F90089589E20E944E36FC0164818081B9
:1057E0000C9472240F931F93CF93DF938C014DE29F
:1057F00050E062EF7BE2FC0180810E947A27EC019D
:10580000F801848518160CF041C064E06CA7F8011B
:1058100084810E9472246A8F7B8F8C8F60E0F801F4
:1058200080850E9472246D8F7E8F8F8F80E090E044
:10583000A0E0B0EC88A399A3AAA3BBA3F801808938
:105840009189A289B3898E8B9F8BA88FB98F6BE0CA
:1058500070E0CE0184960E940B288E899F89A88DC6
:10586000B98D8997A105B10548F085E89DE29B8334
:105870008A83DF91CF911F910F9108958CA580614C
:105880008CA7DF91CF911F910F91089560E0BECF5B
:10589000CF92DF92EF92FF92CF93DF93FC01A4A10E
:1058A000B5A1109761F416861786108A118A80E0D8
:1058B000DF91CF91FF90EF90DF90CF9008958D9181
:1058C0009C91119795A384A316968D919C911797FF
:1058D000958784871296CD90DD90ED90FC9015977A
:1058E000AC01092E000C660B770B4C0D5D1D6E1D77
:1058F0007F1D408751876287738724A524FD43C09D
:105900004289538964897589C40ED51EE61EF71E27
:10591000C28AD38AE48AF58AC482D582E682F78273
:1059200018968D919C911997AC0160E070E0440F3E
:10593000551F661F771F46875787608B718B1A9696
:105940002C911A9720FD3FC040A151A162A173A1E3
:10595000480F591F611D711D40A351A362A373A37A
:1059600080914A0290914B0211969C938E93B09332
:105970004B02A0934A0281E0DF91CF91FF90EF901C
:10598000DF90CF9008954481558166817781C40E60
:10599000D51EE61EF71EC482D582E682F782892BC9
:1059A00031F1206224A718968D919C911997AC0132
:1059B00060E070E046875787608B718B1A962C9158
:1059C0001A9720FFC1CFAC0160E070E0C0A0D1A069
:1059D000E2A0F3A04C195D096E097F0940A351A311
:1059E00062A373A3C58DD68D878D8883B9CF2F7D94
:1059F000D9CF0F931F93CF93DF938C0162EF7BE29C
:105A0000DC018C910E94A927EC010E942528FC0151
:105A1000D80114964D915D916D917C9117974283B9
:105A200053836483758318968D919C911997918700
:105A30008087892B09F466C0D8011C968D919C91B2
:105A40001D97978386831286F8948CA5282F217042
:105A500081FB992790F9291729F091E089279285F0
:105A6000916092874E855F8568897989452B462BA1
:105A7000472B59F583FD19C08CA7118210828CA188
:105A80009DA1892BA9F1AEA1BFA1ED93FC93FFA32A
:105A9000EEA3CE010E94482CCE010E94E9337894F7
:105AA000DF91CF911F910F91089580914A029091BB
:105AB0004B0291838083F0934B02E0934A027894E7
:105AC000DF91CF911F910F9108958CA711821082C1
:105AD0008CA19DA1892B89F0AEA1BFA1ED93FC9370
