:100000000C9497080C94C4080C94C4080C94C4086D
:100010000C94C4080C94C4080C94C4080C94C40830
:100020000C94C4080C94C4080C94C4080C94C40820
:100030000C94063A0C94C4080C94C4080C94C4089C
:100040000C94C4080C943D250C94C4080C94C4086A
:100050000C94C4080C94C4080C94C4080C94C408F0
:100060000C94C4080C94C4080C94C4080C94C408E0
:100070000C94C4080C94C4080C94C4080C94C408D0
:100080000C94C4080C94C4080C94C4080C94C408C0
:100090000C94DD390C94B3390C94C4080C94C40846
:1000A0000C94C4080C94C4080C94C4080C94C408A0
:1000B0000C94C4080C94C4080C94C4080C94C40890
:1000C0000C94C4080C94C4080C94C4080C94C40880
:1000D0000C94C4080C94C4080C94C4080C94C40870
:1000E0000C94C4080C948C1E0C9450140C94F3378C
:1000F0000C9483140C949E2E0C9414350C940924A7
:100100000C94FE370C94A31A0C94882F0C94FD14B5
:100110000C94892C0C94DD2A0C94F8200C94512A10
:100120000C941D2C0C941C2E0C9463240C943235CE
:100130000C94241E0C944F390C94A7390C94211F55
:100140000C94D4110C945B140C94D6330C94902D15
:100150000C941D1D0C94D5210C943D190C94F91888
:100160000C9418200C94B9100C9413110C947A145C
:100170000C946F130C94F0210C9414190C94902689
:100180000C949A1D0C947C340C94D41F0C9419304C
:100190000C9411280C94C51E0C942F1C0C94D7267B
:1001A0000C9479230C944C230C94DE330C9436126B
:1001B0000C94E7300C94342B0C942F110C94722B6C
:1001C0000C94131C0C944C390C9412350C943D284F
:1001D0000C9482110C94C3220C94741A0C946E2A01
:1001E0000C94842C0C94D7130C94841F0C947716C5
:1001F0000C940C2B0C94B9240C94591B0C941517CB
:100200000C94F4380C94D0230C94F4260C94943968
:100210000C94A72F0C94202A0C94D6260C94BD2E57
:100220000C94A6330C9483280C9406230C9473200E
:100230000C94851B0C94CA160C943B220C94C6217A
:100240000C943A230C943B240C94472C0C94EB24F0
:100250000C94DB160C9433150C94C2340C94FB20D4
:100260000C94FC120C94641A0C94A3110C948D132E
:100270000C94FC270C94F71B0400020000040004FB
:10028000000004070404000004040400000000004F
:100290000000040000000000040000020200000052
:1002A000020407000407070400000000040004041F
:1002B000000004000202040404040400000400041A
:1002C0000404040404040004000203040004040001
:1002D000040004000004000400000000000000000E
:1002E00001020102D6023D2802000100000083281D
:1002F0000300010000004C390400010000004F39E8
:100300000500010000009439060100018610B910B3
:100310000700010000002F1108010001D502131190
:10032000090001000000D6260A0201018110FC2705
:100330000B030103D202D7260C020102D0021128BE
:100340000D020002D602842C0E0200025310FC1291
:100350000F030003D202D71310020002D0026F1362
:1003600011050005CB028D13120200025310DD2A85
:1003700013010001D502342B14020002D0020C2B11
:10038000150200025310512A16040004C702902DD2
:1003900017050005C202892C18010001D5020623A9
:1003A00019080008BA0279231A030003B702D02300
:1003B0001B0200025310C3221C020002D0024C2375
:1003C0001D0400046E1009241E010001D5023A2309
:1003D0001F080008AF02C23420020002D0027C34A1
:1003E0002104000355103D19220300027210641A03
:1003F000230300027210741A240400044F10DE3329
:1004000025010001D502D63326030003AC02A63332
:1004100027050005A702151728030003B7021419C2
:1004200029050003A402FB202A040003A102771679
:100430002B0300027210CA162C0400044F10DB16A6
:100440002D0300039E027A142E03000374108314FC
:100450002F0600069802FD1430060006920233159E
:1004600031010001D502D41132030003D202361249
:100470003302000253105B14340300027210FE3783
:10048000350400046E10F43836030003B702A311DC
:1004900037010001D502BD2E38030003D202E73038
:1004A0003902000253109E2E3A0300027210882F68
:1004B0003B030002721019303C0600069202A72F7F
:1004C0003D0300027210F71B3E0300027210131C62
:1004D0003F0800088A022F1C4002000253108C1EA5
:1004E000410500058502211F420400047B10591BB1
:1004F000430200025310851B440400038202241EA1
:10050000450500057D02C51E46010001D502722B7E
:100510004704000364101D2C480500057802472C91
:10052000490400044F10B9244A030003AC02EB2431
:100530004B0001000000A7394C000500000078DAEC
:10054000A559E96EDCC8117E95DE018C64034998DB
:10055000E1318702FFD0E58DB296ADF5587180206C
:100560002028B267A6215ECB267564A1774F555728
:100570005FE48CBC8BC48031ECEEAA3EEAF8EAD092
:100580006F93FB5E1479F2C85B29EA4A4E4E27DB73
:100590002C3B657FFEE9E2E247169F442753762F06
:1005A000AABE1385C4D94F77EC5C0F7F64C1493074
:1005B0003F09A6B3F97416C493A3495697655AE543
:1005C000B0C96F93B428EA2CED78528B5CB2ACEED4
:1005D000ABEEFDBB6C72BA3C8213BB0E8E4AD2EC02
:1005E00081C12A4C7BEBF3C823C87343D0D452FD9E
:1005F00088EAFDBB9E357D51247D430C73C7F06BAB
:10060000CFDB17BB275CE001A95B2EBBA413D9830A
:10061000A451D7A6952C4597985399A8E0FDFAFCCC
:1006200018DE51F0B44DE4AEEFF2FAA99A9C06F848
:10063000B46A23B670A3E7228C6273846C44429F31
:1006400093D378E6A8AAB4A8B789A8ECEDD5B527C6
:10065000A7A1DB495FD950D030F1E4B0B0A46A92D1
:10066000B7C3CD063258449638175BD1A54552F72B
:10067000DD88E1312D7A8EE39C6FD2BEE8123B51CA
:10068000A6CF49DEB7690716A0EE39738773D06726
:10069000573783BDB2C1E1C1DC12EFF2285A2CA753
:1006A00086B895893E9B9B8F3CB25FB1FD9ADBAFCC
:1006B00085FDE245FA629506E208ED2122C8CC01EB
:1006C000F0098224B582ADE12FD80CE89B9822274F
:1006D00096B2E957413CF519ADE2DC632B5E37E297
:1006E000991723C9E569972652FC070ED8F5E00E45
:1006F0005D8212F32C4A7298129577DF85D374F3DA
:10070000541ED046F60256E6F6D0BAD8F563EDC0D0
:10071000CC9E7A227763B0C0F1C6E8589D78E4C9D0
:100720004E6C77EA85E1D2A707F3DC167CDF84996B
:100730005D4BBA9786936CA201A7718943CC7A2945
:1007400029E5F6FDBBBF000684E180F749743B1044
:100750004392199B070AEF1DDD621558F564D670A8
:1007600064563CD86F91DBCF972A4B8636C2B232A3
:100770004FF6CC66EA9DC09BC679110E136DCDB9BC
:1007800068CD2721812276547D21B9B769E01ED634
:10079000ED785BD6E0A0CD4189FACB4EA891BB5451
:1007A00057667DDA5ADB689F933DEF669D9D44CB8B
:1007B000EB44C9E9692BB74B8BF2706285FD737E00
:1007C000DF833DD7CDE4746546B0CB56D932E967B7
:1007D00066C95A9E02D0B6396FF13CF4204281C0FE
:1007E000103CB5A2E37B1468B44408D0C74BDE6E5E
:1007F0007995BD24081770099822E8487675C9F7DD
:100800004059A665E33B801E5B481E82365CDDC115
:10081000153DD7CAB815DB2D6FF11112FD03112953
:100820007687AB9000774A3B6E051480556F048045
:1008300034B874423264599B91588F265BF06675C8
:100840004FB07F3D5234E0D534EC1BD40228F2681F
:10085000A2112F91705E021668011DBF49CEF36090
:1008600044862A30644E1D731022C25259E762F347
:100870009280AEED5E2D572EC5745C821BE02AB1CE
:10088000459A8D7438A4C7B9A4E01A340222D4BAA8
:100890001C1F1F81C244CEAB0E0E67F56603A7284E
:1008A000A7B20109CE31F0A89E61A5B9987A2B7D37
:1008B000933B4953D4DEF5DE310BD88654320AA57A
:1008C00087A33568603A6250BAEC1D88442B4B30E0
:1008D0000EBBFFA3B195CED834FABA11A40E5B605B
:1008E000DCF1ECC10BD6A17DD52856DB1B3435F8E5
:1008F000F3F87C2F5C84668351A07A532CF311C3E8
:10090000582C716C08F620FF8DC4086D1A105E6CAF
:10091000E84DB1BDD221907B630F4F7403C961EEE6
:10092000437AEAF9A114C56E57FB4174161B965120
:100930000CB5E45631600773438CA06D033D6A83A8
:1009400070CAD8F24E2509F02B0009C02954F806C8
:1009500015C4FA53F113008CCF03063047A4F1DF1E
:1009600030CAAFE0DEE11E917A818AF976CF41028A
:10097000004C7362AAF8B3BE028425EBA7A225E45B
:100980009A119191C7EF24132015789517D731F359
:10099000DD38F3747E190744E779B6B71A4666B5B1
:1009A000C37CCB8F743AFD02D4E25E1A062C73C767
:1009B00022EB4DF794B6DCE72D85AC4D5C2B6B2913
:1009C0000E05FCBD4DA3256DFAF63B427CAFCA2552
:1009D000BE07C9F16A48751891633C8DB2860461FF
:1009E0001FD04C600E667D6CB672042AD8A0F552FA
:1009F0003862363A79B10A38604B1DF307A256A027
:100A00006C319B0A0024256E94217AE7010F009334
:100A1000F0E83A3F97E04DDDEA40468EAAC6D64858
:100A2000F8732340257ED85CD99D46AFF089200617
:100A300012C81FF263CF07A257939F603978767967
:100A400091DC9CFD13B30E4C9FCEEFD6C9EDF5A7FC
:100A5000358213949CB7E7E1D1ED7900FF67136FFE
:100A6000B17B528B97D3A3DB4B5CB8F8F8F9E2E784
:100A7000E4C397AB5FD05DA6EADFD1E4E6E20EA85F
:100A8000D2AEE4DB3488E75320BCFD7643A70508EB
:100A9000835FAE2EAEAEFF71957CBBFE74F9F91B81
:100AA000AA2DC0C9F5D51798A45BF056A4853A0BBA
:100AB0002E7119C216B07A7DF631393FBBBBC46DB9
:100AC000E8A8F5D7B3AFEB647D77B3FE0556D657EC
:100AD000B8327FC564A387F44725E8AAF8D575091D
:100AE0007EAA374C81066C1AC7B767D3C9E9BFA67F
:100AF00047CB7FC335CFF17B49DF17F80D20A00628
:100B000097388034450DAE7000A5A31A7CC041A46F
:100B1000F97F5203BDC1DF7010EB0DFE8E8385E6B9
:100B2000F9591DA3793EAA01F2BC0EA001B253559A
:100B3000B7CFC230841B1F4D52194FA345AE227F41
:100B400057F0188AFC7B78B0E6D2CF53FAC3E7613E
:100B5000F81168822D649989C8B5D299328E0DC575
:100B60004DAA15CF0AB4F1176632B09C00F322AD3E
:100B70005855770C8C9D216030C0380236A66C9693
:100B80003DED047C93ED49D680F7C04984C886B713
:100B9000975C85B176C63675CBC00CFE6AC642E25C
:100BA0006AAEE6D594A4921D58FFD4614080F262EB
:100BB0000B17829C3DED903AD5D7A4628A924A4D9C
:100BC0002C91144D9E525F9A55B1436D0D37E5152A
:100BD00033F586E507A3BBA006096BD2164C8EF150
:100BE000B6AD5B95559A85964308939D6A937C486C
:100BF000E1BD39EB6AA69002CB5EE5E054FF5D579C
:100C0000E06B2267A68FE0DA1A14E708810D95EEF3
:100C1000CCA884D6CD01195E252D390449AA6BCC08
:100C200062593F72731B86A52F7AB45BB685B22DCD
:100C30008D2913DD5BD7F9A03D1F6B1F43040264B0
:100C4000647658699859AC680D6E048BC1BC4E63CC
:100C5000B29D683463180F0940057DE3DE24292D19
:100C600030148344C6DF0551247D463B5D1A815212
:100C7000D57CC3A54CB79C416103B1C8280CB6BC58
:100C80001112AD49422698F7051656C08CA19B69F2
:100C9000545486CF1F396A02A3F6DB0CBBB4CD9542
:100CA000B16B6AAC9B6F50FC2A9B61F0D56E8AFADF
:100CB00089D2A14F60E529A3E7A07B295489460B7F
:100CC00060F7B48051DD5F1055434903E5FB6AA925
:100CD000C29BBAE948A1A7B5FEA6ADB720CC12AE1B
:100CE0009EE2DB361075E196206C8E8E8BD9F9175B
:100CF000AE1F85C68A9E05C7A0A8410D68C9587752
:100D0000AC2DC19E74D893280A084619EC37E874B4
:100D10005078759C5642DFE1C0FEDA1ABC9074A888
:100D20002E8014A2EC4B33679C032C6B6DBA19AA6E
:100D3000AE82CD94DF2A0CF25B7F6BEDC85D5DB3B4
:100D40004DAA5E472FC332F2AB6F5207F06E3522C9
:100D500041A9C25EAAC543B1FBAB12196E0EA15ADE
:100D6000725539DF55B26F305C73F27B05B658E8C7
:100D70007C4BBB6C97D75B12F40F94A5AB562BD46E
:100D8000247DF5001B23685007CF9B976E018C973D
:100D9000DC0850450218A293432200D5A52413086D
:100DA0005DCF8730ADAE0A80C147D820BD2F0CBAC9
:100DB0005909AD5459C9747E4239DAA88E3D659FF0
:100DC000015F2146DE634AB1C13E86FC81AA26D579
:100DD0001DB650AB7BC63935272456A3158008595C
:100DE0005506CBB814D9144AA18F125D91B6286E5E
:100DF000AC310E2427A85272006C42694426F7C217
:100E0000940CA2D75EA306C3176410E16C19C72A1D
:100E10001AEAC15C85431ACC63651F3098CF17F07E
:100E20001DBEBEAA12A201F8E0D404D725AB9F5F75
:100E30004A04D52AE3A3C278858A3C54E1BA6247C2
:100E400057632681A342C1DFEDBE57EEA9B83662D3
:100E500053E36F21BC4E37560498FCD84A79D0181A
:100E6000A11D0FD5564BAF6B3FE048BD3298A91579
:100E70007ACD311A3E95502E535DDA0E39C457DDC6
:100E800053510F54AD179C3356A50A04003EFFDEA4
:100E90004BD55155D5F5F76EAD39F447E24E3FC607
:100EA000DCC3F4BB24B89F6D5F2D23D72E1AECBC96
:100EB000ABA19EDDEE9FE177A3807DEE3A308951B4
:100EC000BFCB9C69AC953C734D168FD4765BC81C28
:100ED0004E90144CCE13081BA75724930578B9A93C
:100EE000FFFF808D1D63A03BD82FF8BF8CACDF3790
:100EF000B2E3D06F1769799BCBF559A63AF4192A5A
:100F0000055E0052F0FB924BAC9E1D349B16CE61E9
:100F1000012CFD1CF60F8920F039BC12CC67004D66
:100F20001DAC9BF7D4EBB7417C3D47C33AF577CC7A
:100F300062A9EA48003495D02EE6944D4B67CBB2B7
:100F40002FF58FFC95FA455EE5392A4BA9E906593C
:100F5000F9321EE1DA500D079DBDA7C8A474B39AFB
:100F6000BA5A75FFFE58A592A70FEA4FE73C596A97
:100F70008BE1836D5A1F18544DA95267FA9B45EFB8
:100F80002F6275A1FF3C0915DAE3F464363D991E22
:100F9000C78BD9F176B548E3FB70954E5EFF0B50D9
:100FA0000BA416650A000020002300260029002C4F
:100FB000002F003200000100000301060109010FAB
:100FC00047004400450080013548004400450020AA
:100FD000010D88008000810080000E8A0080008161
:100FE0000020000F8C008000810008000CB300B0CE
:100FF00000B10080033EB400B000B100200323988C
:1010000000900091008000249A0090009100200040
:10101000259C009000910008003BA800A000A100C2
:1010200080003CAA00A000A10020003DAC00A00070
:10103000A10008005B28012001210180005C2A0139
:101040002001210120005D2C012001210108000464
:101050000000000404040407040000020400020469
:101060000204000704020704000002040402040052
:10107000000404070400020404040004040004043F
:101080000107040004020000000000000006000246
:10109000026617044F10650A025310644002721072
:1010A00063400355106240036410611F07581060CD
:1010B000400364105F0B025F105E400361105D40EF
:1010C0000364105C1C0767105B400272105A140422
:1010D0006E105940027210581003741057110477A3
:1010E000105611047B10550D027F10540B01861011
:1010F00053400181105212048210510B018610508E
:10110000100287104F150389100040028C104E0EFC
:10111000028E104D090190104C0600000028292A6B
:101120002B2C2D2E2F50515253545556570011240D
:101130001FBECFEFD1E2DEBFCDBF00E00CBF14BEBB
:101140000FB6F894A8958091600088618093600044
:10115000109260000FBE12E0A0E0B2E0E6E8F5E712
:1011600000E00BBF02C007900D92AA32B107D9F779
:1011700023E0AAE2B2E001C01D92A739B207E1F76D
:101180000E946E260C94C13A0C940000CF93DF931A
:10119000CDB7DEB76E970FB6F894DEBF0FBECDBFEA
:1011A0000E945B266B017C019E012F5F3F4F19015E
:1011B000AE01475F5F4F5B8B4A8B8091260288238D
:1011C00009F434C50E945B26C61AD70AE80AF90A50
:1011D000F89480912602882351F08FEF80932602A5
:1011E00078940000F894809126028111F9CF7894C8
:1011F0000E945B26A7019601260F371F481F591F23
:10120000288F398F4A8F5B8F81E0809326028091EF
:101210004C02882309F440C010924C028FEF89835E
:101220009CEDE92E90E1F92E6AE373E2C1010E9480
:101230005E118C01892B81F1D80156968C9182FF29
:10124000F3CF0E945B26F894F80137892689422F54
:101250004B7F468B78949F938F937F936F931F92CE
:101260003F9321701F922F9389811F928F93FF923A
:10127000EF920E94C1312DB73EB7245F3F4F0FB6AA
:10128000F8943EBF0FBE2DBF6AE373E2C1010E9416
:101290005E118C01892B81F680914D02882309F122
:1012A00010924D028FEF898307ED10E16CE774E334
:1012B000C1010E945E11FC01892B99F0958D868DEC
:1012C0009813F4CFF894858D968D891709F48FC5FE
:1012D00078946CE774E3C1010E945E11FC01892BD4
:1012E00069F780914702882309F456C0109247029B
:1012F0008FEF898B8CE0B82E64E179E1CE014196C5
:101300000E945E114C01892B09F446C0D401579606
:101310008C91579780FFF0CFF894F401448055806A
:101320006680778087898E7F878B789456968C919C
:10133000813009F4E5C308F4BDC3823009F47EC3EB
:101340008330D1F6A9881F86188A9E01215F3F4FFE
:1013500042E061E0F401848995890E946A198F85D1
:101360009889382F292F3D8B2C8B790100E010E0D4
:10137000B401605F7F4FC12CA3019201C4010C96A0
:101380000E9454173C8932FFB7CF80912702811108
:10139000B3CF8CE10E94EC3780914602882389F11B
:1013A000109246028FEF8B87A2E0DA2EBDE2EB2E81
:1013B00018E0F12E6BE574E1CE010B960E945E11F0
:1013C0008C01892BF1F0D80152968C9182FFF2CFDB
:1013D00080FF12C0C8010E943535F801D28AE98227
:1013E000FA82910142E060E0848595850E946A1945
:1013F000C8010E947A15DECF6B85C8010E94BF1517
:10140000D9CF80914502882309F45AC01092450231
:101410008FEF8B8777247A94FDE14F2E63EA71E199
:10142000CE010B960E945E118C01892B09F448C0F5
:10143000D80150968C9182FFF1CFF894F801848006
:101440009580A680B780F488108A148A7894808565
:101450009185A285B385881A990AAA0ABB0AD80180
:10146000FF2089F052968C91F801E80FF11D758AE2
:10147000168A178A8D5FF801828B8E32D8F4FA941F
:10148000D801F110EFCF51968C91882309F477C2DF
:10149000813009F462C3823009F457C4D8015296EE
:1014A0008C9190E08E970CF4B9CF6B85C8010E94A7
:1014B000CE38B4CF6B85C8010E94CE38FA94E0CF05
:1014C00080915102882309F45FC0109251028FEF7E
:1014D0008B8712E0A12E03E2E02E8AE6F82E94E03C
:1014E000B92E20E4C22E38E0D32E6EE97EE2CE0182
:1014F0000B960E945E118C01892B09F445C0F801FE
:10150000828982FFF2CF80FF3AC0C8010E94353540
:10151000D8015296AC925297E9821A821C96ED91AC
:10152000FC911D97A10162E080810E946618F982FA
:10153000BA82D8011C96ED91FC911D97A10162E041
:1015400080810E946618F982CA82D8011C96ED91AA
:10155000FC911D97A10162E080810E946618E982DA
:10156000DA82D8011C96ED91FC911D97A10162E0F1
:1015700080810E946618C8010E943830B6CF6B8502
:10158000C8010E945730B1CF809148028823E9F00A
:10159000109248028FEF898300EA10E165E87BE151
:1015A000C1010E945E11009781F0FC01208D2F3F48
:1015B000A9F7F8942685211104C3789465E87BE1A6
:1015C000C1010E945E11009781F780914902882332
:1015D000D9F1109249028FEF89830BE910E165EC94
:1015E0007EE1C1010E945E11009771F1DC011E963F
:1015F0002C911E9723FFF3CFF894FC012685277FBB
:10160000268778949C01265E3F4F3F932F935096F8
:101610008C918695869586951F928F9389811F92CE
:101620008F931F930F930E94C131EDB7FEB7389689
:101630000FB6F894FEBF0FBEEDBF65EC7EE1C101B1
:101640000E945E11009791F680914E02882309F462
:1016500046C010924E028FEF898301E910E16BEED4
:1016600074E2C1010E945E11FC01892BC1F1848DDD
:1016700080FFF5CFF8949481258136814781548984
:1016800065897689A789B08DF18CE28CD38C848DA5
:101690008E7F848F7894DF92EF92FF92BF93AF9307
:1016A0007F936F935F934F933F932F939F93898182
:1016B0001F928F931F930F930E94C1312DB73EB796
:1016C000205F3F4F0FB6F8943EBF0FBE2DBF6BEEAD
:1016D00074E2C1010E945E11FC01892B41F6A895BC
:1016E00080917302882329F080E480936000109237
:1016F000730210913403112309F46DC000912A0282
:1017000000FD12C0153008F466C0B0907402CB2CF6
:101710008BEF8B0D8C3308F4B0C2EEE7CE1609F4D4
:101720001AC4016000932A02412F50E06EE770E076
:1017300084E792E00E94923A009739F00E7F00937E
:101740002A028457924011E0180F01FD0CC0902F1F
:10175000926090932A0289E395E09F938F930E9471
:10176000C1310F900F90B12EDD24DA9480E0EB2C84
:10177000F12C18C090E0402F50E0481B590BB701E6
:10178000680F791F6C587D4F8C589D4F0E94A83A66
:1017900010922602802F9FB7F894209134031217DD
:1017A00061F09FBF10913403012F0B1919F79FB7F8
:1017B000F894209134031213F4CF009334039FBFA5
:1017C000F1E0DF1208C089E395E09F938F930E94B8
:1017D000C1310F900F900E945B266B017C01288D18
:1017E000398D4A8D5B8D621B730B840B950B80903A
:1017F000330290903402A0903502B09036023FEF51
:10180000831A930AA30AB30A809233029092340295
:10181000A0923502B092360240902F0250903002D2
:101820006090310270903202460E571E681E791E7B
:1018300040922F0250923002609231027092320236
:101840006115710541E08407910508F0F4C19B0121
:10185000AC010E94113ADC01CB0181509F4FAF4F88
:10186000BF4F892F9A2FAB2FBB2740912B0250914E
:101870002C0260912D0270912E02840F951FA61FDD
:10188000B71F84179507A607B70718F48FEF9FEFC8
:10189000DC0180932B0290932C02A0932D02B09335
:1018A0002E0240916F02509170026091710270910E
:1018B00072025C546B437B4F2F2DC416D506E6068F
:1018C000270B27FD7ACCBF93AF939F938F937F9283
:1018D0006F925F924F92BF92AF929F928F9284E0ED
:1018E00091E19F938F930E94C1316DB77EB7625F84
:1018F0007F4F0FB6F8947EBF0FBE6DBF80916F0211
:1019000090917002A0917102B0917202C816D9062E
:10191000EA06FB0698F480916B0290916C02A0910C
:101920006D02B0916E020196A11DB11D80936B02F4
:1019300090936C02A0936D02B0936E02C0926F02FE
:10194000D0927002E0927102F092720210922B0219
:1019500010922C0210922D0210922E0210922F0241
:101960001092300210923102109232021092330221
:101970001092340210923502109236021ECC82E38D
:1019800089831A820E945B266B017C01910142E0EF
:1019900061E0F801848595850E946A190E945B26A2
:1019A000DC01CB018C199D09AE09BF09813293403E
:1019B000A105B10508F0F7C0998197FD2EC1C8189F
:1019C000D908EA08FB08D80153968C918823C1F006
:1019D0002FEF280F41E050E002C0440F551F2A9519
:1019E000E2F7052E000C660B770BC40ED51EE61E23
:1019F000F71E04C0F694E794D794C7948A95D2F75B
:101A0000BFEFCB16D104E104F10408F064C12A81D0
:101A100030E0220F331F892F90E0982F8827990FED
:101A2000822B932BF8012289E20FF11DC58A868B48
:101A3000978B2D5FD80152962C9330CDA98881E0E9
:101A400089831A821B821C82910143E061E08489B0
:101A500095890E946A1969817A818B819C810E9493
:101A6000213A272F382F492F55272C8B3D8B4E8B12
:101A70005F8B37E039831A82910142E061E0D40143
:101A800054968D919C9155970E946A19EC88FD8817
:101A90000E891F8900271127B401605F7F4FCA801C
:101AA000A3019201C4010C960E945417BC89B0FF97
:101AB00023CC6BCCA9881B861C861D861E869E01A6
:101AC000255F3F4F44E061E0F401848995890E94DD
:101AD0006A196B857C858D859E850E94213AD62E5C
:101AE000F72EB401605F7F4FC12CED2C8C01A30158
:101AF0009201C4010C960E945417D2FEFDCB45CC36
:101B0000A988B9821A821B821C82910144E061E09B
:101B1000848995890E946A1969817A818B819C8167
:101B20000E94213A6B017C01BFE0B9831A829101C6
:101B300042E061E0F401848995890E946A19870175
:101B400076011127B401605F7F4FCA80A301920123
:101B5000C4010C960E945417CFCB8FE789838EEF78
:101B60008A830E945B266C8B7D8B8E8B9F8B910171
:101B700042E060E0F801848595850E946A190E9420
:101B80005B266B017C01DC01CB012C893D894E89F0
:101B90005F89821B930BA40BB50B81329340A10587
:101BA000B10508F4A5C0D80152968C91F801E80F50
:101BB000F11D758A92E0968B178A8D5FF801828BF2
:101BC0006DCCFC01318D308F7894AC01415F5F4F5B
:101BD0005F934F931F922F9387891F928F938981D1
:101BE0001F928F931F930F930E94C131EDB7FEB7E1
:101BF0003A960FB6F894FEBF0FBEEDBFCFCC2A8940
:101C00003B89E217F30709F0E3C0809590E02A854D
:101C100030E08217930709F40AC1D80152968C91DB
:101C2000F801E80FF11D758A93E0C5CFC88ED98EF3
:101C3000EA8EFB8EE9CA6115710550E185079105B1
:101C400008F024CE8B019C0101501F4F2F4F3F4FB6
:101C50005527432F322F212F0E94113ADC01CB014F
:101C600040912B0250912C0260912D0270912E0216
:101C7000840F951FA61FB71F04CED09075028D2D1F
:101C8000807F803109F049CD1B1508F4A4CD8B2D40
:101C900090E0FC01ED58FD4F20812E3709F03DCD3D
:101CA000AC014F585D4F4A01FC01EE58FD4F908149
:101CB000DA018C91292F30E07901F82A6DEF6B0D54
:101CC00084E792E00E947126E816F90609F445C1FE
:101CD000C090740222CDF8018289E80FF11D758A47
:101CE00091E0968B178A8D5FD80152968C93D6CB54
:101CF00080EC89831A82910142E061E0D8011C9650
:101D00008D919C911D970E946A1949812A81942F77
:101D10009227892F82958F709827892F869586958F
:101D20008927982F9695892780FD95C046FFA3C0E7
:101D3000F8018289E80FF11D758A25E0268B178A44
:101D40008D5FD80152968C93A9CBD8011C96ED914A
:101D5000FC911D976480B281BC8B538040E06B2F57
:101D6000752D862D0E94EA180E945B266B017C016E
:101D7000E0E1CE0ED11CE11CF11C0E945B262F2D50
:101D8000C616D706E806290B27FFF7CFF89441E0DF
:101D90006C89752D862D0E94EA180E945B266B01C6
:101DA0007C017894D101EAE01D92EA95E9F7F4E824
:101DB000F98323E22A8391014AE061E0D8011C966D
:101DC0008D919C911D970E946A19FE01339685E0C2
:101DD0009191892728E030E005C0880F2150310912
:101DE00009F40DCF87FFF9CF880F8425F7CF5489E9
:101DF000658990892189328943898F5F858F78949D
:101E00006F935F934F933F932F939F9389811F927B
:101E10008F931F930F930E94C1314DB75EB7465FFA
:101E20005F4F0FB6F8945EBF0FBE4DBF3FCA8985A6
:101E300084FF18C08B8187FD60C0D80152968C91B9
:101E4000F801E80FF11D758AB4E0B68B178A8D5F33
:101E5000F801828B23CBF8018289E80FF11D758A86
:101E600093E03FCFD80152968C91F801E80FF11D15
:101E7000758AB5E0EACFC818D908EA08FB08F80166
:101E800033893323C9F08FEF830F61E070E002C024
:101E9000660F771F8A95E2F7CB01092E000CAA0B7B
:101EA000BB0BC80ED91EEA1EFB1E04C0F694E794B5
:101EB000D794C7943A95D2F77FEFC716D104E104BF
:101EC000F10408F03FC0842F90E0AC01542F442768
:101ED000550F550FF4E02F9FC0011124842B952B33
:101EE000D80152962C91F801E20FF11DC58A868B1C
:101EF000978B2D5FF801228BD1CAC818D908EA0840
:101F0000FB08F1E5CF16F5E5DF06E104F104D0F4B6
:101F10002C8130E0220F331F90E0982F8827990FF3
:101F2000822B932BD80152963C91F801E30FF11DBF
:101F30002F8126952F73258B868B978B3D5FF8011C
:101F4000328BACCAD80152968C91F801E80FF11D82
:101F5000758A91E030CE11E006CC802F8D7F809382
:101F60002A0280910802D81202C181E08D0D8F7083
:101F7000806180930802B6E78B16B2E09B0609F0F9
:101F800008F4BEC0E6E7F2E0BE8ECDB6DEB68F0145
:101F90000F5F1F4F2081222309F4E6C0E8E3F5E03C
:101FA0008491281708F0E0C030E0220F331F220F81
:101FB000331F220F331FF901E752FD4FE4914DB754
:101FC0005EB764E0E69F4019510911240FB6F894FA
:101FD0005EBF0FBE4DBF8DB79EB70196F901E552AA
:101FE000FD4F4491F901E452FD4F65917491FB015D
:101FF000640F711DAC01DD8ACC8A9D8F8C8F6E17AA
:102000007F0709F482C08016910608F46EC0A4917F
:10201000A53028F1A73009F068C02801BFEF4B1A9E
:102020005B0AD801AC9082010A0D111D8016910641
:1020300008F45BC0B12CC12CD12CDA01AD92BD9259
:10204000CD92DC921397612C712C14964D925D9277
:102050006D927C921797485F5F4F3196D0CF7A018F
:1020600084E0E80EF11C68019FEFC91AD90AD80173
:102070001C91912F9F77492E512C612C712C012F8F
:1020800000760036A9F117FF3EC086010F5F1F4F93
:10209000D80111978C91440C551C661C771C440C7C
:1020A000551C661C771C440C551C661C771C440C84
:1020B000551C661C771C440C551C661C771C440C74
:1020C000551C661C771C440C551C661C771C982FED
:1020D0009F77492A87FDDACFDA014D925D926D92A2
:1020E0007C921397A70131968ACF87E00E94EC3744
:1020F000B0EE4B2A55245A94652C762CC4CFBE8C56
:10210000DD24D39433CB8601E7CFCC88DD888C8D5A
:102110009D8D40912702442331F0F901E652FD4F95
:10212000E491E0FF11C022523D4FF9012591349115
:10213000F90119950FB6F894DEBE0FBECDBE081595
:102140001905E8F6F80121CF809128021F928F939C
:10215000E3E1F1E1FF93EF930E94C1310FB6F894F0
:10216000DEBE0FBECDBEEBCF85E00E94EC371B2D4F
:10217000F2CA0F931F93CF93DF938C0180913F029C
:1021800090914002892B09F04BC060913E0270E0B3
:10219000623071052CF482E080933E0262E070E0D0
:1021A000E0913A02F0913B024DB75EB741505F4F6C
:1021B00044275A959F01C0E0D0E0C901860F971FC0
:1021C0004817590730F121969C01C115A4E0DA07A0
:1021D000A1F78E1B9F0B0E949E31D0934002C093AB
:1021E0003F0290933D0280933C020E94D928F8015F
:1021F00080819181A281B3818093410290934202B8
:10220000A0934302B0934402DF91CF911F910F91AD
:102210000895209711F0C901DCCF80E10E94EC37CE
:102220008DE00E94EC37CF93209138023091390233
:10223000232B91F4FC01C0818C2F90E0880F991F13
:10224000880F991F0E949E31909339028093380223
:10225000C0933702CF9108958AE00E94EC378091B5
:102260003F02909140029F938F9321E0309127028B
:10227000311101C020E01F922F93209144022F932F
:10228000209143022F93209142022F9320914102EB
:102290002F9321E0892B09F420E01F922F9385EFE3
:1022A00090E19F938F930E94C1318DB79EB70C969A
:1022B0000FB6F8949EBF0FBE8DBF0895CF93DF93E6
:1022C000EC01988140913702A0913802B091390217
:1022D0000BC0FD0184E0989FE00DF11D11242081C9
:1022E00031812617370741F09F5F941790F380E004
:1022F00090E0DF91CF910895988382819381DF915F
:10230000CF910895FC01808982FD19C08460808B83
:102310001092260281E080934502448155816681B6
:10232000778180859185A285B385840F951FA61F2F
:10233000B71F84839583A683B78381E0089584893A
:102340008F5F848BE5CFFF920F931F93CF93DF9323
:10235000EC01F88483E08F1508F145E450E063EA6E
:1023600071E188810E9492288C0182E891E1F80154
:102370009383828366EA73E38C810E94C128F8010B
:1023800095878487FC01858180FF0BC0F801F18A65
:10239000DF91CF911F910F91FF90089583E20E94EA
:1023A000EC3782E20E94EC378F929F92AF92BF92FD
:1023B000EF92FF920F931F93CF93DF931F921F9281
:1023C000CDB7DEB77C016BE574E1FC0180810E9432
:1023D000C1288C0189EB89831A820E945B264B01FC
:1023E0005C019E012F5F3F4F42E061E0F801848570
:1023F00095850E946A190E945B26F80121892F9316
:1024000020892F932A811F922F9323891F922F9324
:1024100027852F9326852F93DC01CB0188199909F5
:10242000AA09BB09BF93AF939F938F93BF92AF92BB
:102430009F928F92F70180811F928F9383EC90E19E
:102440009F938F930E94C1310FB6F894DEBF0FBEE9
:10245000CDBF0F900F90DF91CF911F910F91FF9003
:10246000EF90BF90AF909F908F9008954F925F92A2
:102470006F927F928F929F92AF92BF92DF92EF9274
:10248000FF920F931F93CF93DF931F921F92CDB7AD
:10249000DEB77C01FC01D0806BE574E18D2D0E94DC
:1024A000C1288C01F70180859185A285B385892B90
:1024B0008A2B8B2B99F1C8010E943535F701848155
:1024C0009581A681B781F80184839583A683B7831C
:1024D000F70180859185A285B385F8018087918772
:1024E000A287B38781E0828B118A108A17861686AD
:1024F000138AC8010E9487350F900F90DF91CF910A
:102500001F910F91FF90EF90DF90BF90AF909F9041
:102510008F907F906F905F904F900895C8010E94B8
:102520003535F801128A8DE289831A820E945B2672
:102530004B015C019E012F5F3F4F42E060E0F801DC
:10254000848595850E946A190E945B262B013C01B7
:1025500081E2F82E99EBE92E03C0FA94FF20C1F036
:10256000E9821A829E012F5F3F4F42E061E0F8014D
:10257000848595850E946A198A818F7749F0813216
:1025800060F76D2DC8010E94BF15FA94F110E8CFD5
:10259000F8018389882331F06D2DC8010E949915B7
:1025A000F8018389F80191899F9390899F939A817B
:1025B0001F929F931F928F9387858F9386858F930A
:1025C000D301C20188199909AA09BB09BF93AF9326
:1025D0009F938F93BF92AF929F928F921F92DF92A1
:1025E00083EC90E19F938F930E94C1310FB6F894D2
:1025F000DEBF0FBECDBF80CF8F929F92AF92BF92B2
:10260000FF920F931F93CF93DF938C016DE873E1DB
:10261000FC0180810E94C128EC010E9435358F8D1C
:1026200098A1892B09F058C0F80104811BA1FF244F
:10263000F394002339F16C897D898E894F2D0E9496
:10264000EA1821E001111CC014FB882780F991E0F1
:102650008927281741F08F89988DA98DBA8D892BEC
:102660008A2B8B2B89F410711F291BA3DF91CF912B
:102670001F910F91FF90BF90AF909F908F90089502
:1026800020E0E2CFF12CD7CF0E945B268F88988C78
:10269000A98CBA8CDC01CB01880D991DAA1DBB1D2C
:1026A000888B998BAA8BBB8B8C839D83AE83BF83D6
:1026B00084EF96E29B838A83107114601F291BA309
:1026C000CE01DF91CF911F910F91FF90BF90AF90FE
:1026D0009F908F900C94873582E10E94EC37CF93C6
:1026E000DF93EC016DE873E188810E94C128F894C2
:1026F000FC01278D30A1232B69F44C815D816E8113
:102700007F81FC01438F548F658F768F7894DF91A2
:10271000CF91089584E10E94EC37CF92DF92EF923F
:10272000CF93DF93EC0161E088859985AA85BB850D
:10273000892B8A2B8B2B09F460E08C810E94092560
:102740006B01E82E44E250E06DE873E188810E945D
:102750009228FC01C48AD58AE68A21E048855985F9
:102760006A857B85452B462B472B09F420E04C8559
:102770005D856E857F85452B462B472BB1F430E078
:10278000232BFC0123A3488959896A897B89478BBC
:10279000508F618F728F6AE070E04F96DF91CF911A
:1027A000EF90DF90CF900C94232930E1E9CFCF92C6
:1027B000DF92EF92FF920F931F93CF93DF938C01E1
:1027C0006DE873E1DC018C910E94C128EC010E944C
:1027D0003D29FC01D8011496CD90DD90ED90FC9040
:1027E0001797C282D382E482F58218964D915D914B
:1027F0006D917C911B974683578360877187F8940E
:10280000118210828F8D98A1892B81F0A9A1BAA184
:10281000ED93FC93FAA3E9A37894DF91CF911F91F4
:102820000F91FF90EF90DF90CF900895FAA3E9A366
:10283000F8A3EF8F8BA182FD25C0C88AD98AEA8AC6
:10284000FB8A982F94609BA381FD10C0CE010E944B
:102850003535CC82DD82EE82FF8284EF96E29B8367
:102860008A83CE010E9487357894D7CF4C815D81D1
:102870006E817F81872F4C155D056E058F0987FF5F
:10288000E5CFF2CF488959896A897B89972F4C1502
:102890005D056E059F0997FFD0CF83E10E94EC375D
:1028A000FC0192899460928B1092260281E08093C1
:1028B000460280E008950F931F93CF93DF938C011E
:1028C00046E450E06BE574E1FC0180810E949228AF
:1028D000EC0180E594E19B838A8366EA73E3F80167
:1028E00084810E94C1289D878C87DF91CF911F91A1
:1028F0000F910895FC01448155816681778120857F
:1029000080810C945129EF92FF920F931F93CF93E4
:10291000DF937C016DEF74E1DC018C910E94C12892
:102920008C010E943D29EC01F70184819581A681EB
:10293000B7818A839B83AC83BD83808591859F8388
:102940008E83F89419821882D80151968D919C91AA
:102950005297892BB9F15396ED91FC915497D183FD
:10296000C0835496DC93CE93539780E090E07894A4
:10297000892B39F4DF91CF911F910F91FF90EF9048
:102980000895C8010E943535D80112968D919C9109
:102990001397885F9042F1F08A819B81AC81BD8161
:1029A00023E730E2F8013383228384839583A6836F
:1029B000B783C801DF91CF911F910F91FF90EF90E6
:1029C0000C948735F801D48BC38BD28BC18B81E0FB
:1029D00090E0CDCF8A819B81AC81BD81F80144819B
:1029E000558166817781272F481759076A072B0B76
:1029F00027FFD6CF80E20E94EC37CF92DF92EF9292
:102A0000CF93DF93EC01488559856A857B852C85BA
:102A10008C810E9451296B01E82E45E150E06DEF59
:102A200074E188810E949228FC01C086D186E286EA
:102A300088899989908B87878C899D89AE89BF8980
:102A400083879487A587B68783E790E29383828301
:102A500068E070E0CF014196DF91CF91EF90DF9079
:102A6000CF900C942329DF92EF92FF920F931F9344
:102A7000CF93DF93EC01D88883E08D15B0F166EA3F
:102A800073E388810E94C1287C018AE090E00E9463
:102A90009E318C0161E08C810E94B118F801608345
:102AA0007183828360E088850E940925F801638331
:102AB0007483858360E08C850E940925F801668314
:102AC00077838087D186F7018581982F967081F46E
:102AD000F7011183008382608583DF91CF911F917D
:102AE0000F91FF90EF90DF9008958BE10E94EC37FB
:102AF0000E9467190F931F93CF93DF93EC01F89413
:102B00000E945B26088519852A853B85DC01CB015F
:102B1000800F911FA21FB31F8C839D83AE83BF8341
:102B2000CE010E9487357894DF91CF911F910F914C
:102B30000895CF93DF93EC0144969F938F938B89F5
:102B40001F928F938F858F938E858F931F926F9394
:102B50008EEB90E19F938F930E94C1311B8A8E85EB
:102B60009F8501969F878E878DB79EB70A960FB671
:102B7000F8949EBF0FBE8DBFDF91CF910895DF9275
:102B8000EF92FF920F931F93CF93DF93CDB7DEB7F2
:102B900029970FB6F894DEBF0FBECDBF8C01F62E7D
:102BA0009E012F5F3F4F89E0F90111928A95E9F765
:102BB00082EF898349E061E0F801848595850E9470
:102BC0006A19F801838990E09C012C5E3F4FE20F67
:102BD000F31F3B81232F207F21F1203F11F12FEFA5
:102BE0002483238322832183F801E80FF91F248B98
:102BF000F80183898B5F838B8E3208F05EC0F80109
:102C0000828981FD4FC029960FB6F894DEBF0FBEB2
:102C1000CDBFDF91CF911F910F91FF90EF90DF908B
:102C200008954D81242F207FC9F52F81522F507F89
:102C300011F0503FA1F65885503989F659855F77D4
:102C4000E52E50E25E1558F2D801A80FB91F5A813F
:102C500054965C938C8181838E818283822F90E055
:102C60003F71BC01660F771F62957295707F762762
:102C7000607F7627362B3383880F991F880F991F23
:102C800080764F71482B4483F80183898B5F838B57
:102C90004EEFD42EDE0C8E32B8F012C0203F09F079
:102CA0009ECFC3CFC8010E943535F80182898B7F42
:102CB000828BC8010E947A15A6CF8EEFD82EE12C08
:102CC0006F2DC8010E949915FEE1FE1530F4F80140
:102CD000808991890196918B808BFEE1FD1508F426
:102CE0008ECF1092260281E0809346028CCFAF9265
:102CF000BF92CF92DF92EF92FF920F931F93CF93E9
:102D0000DF93CDB7DEB77C01ADB6BEB6FC01C080A7
:102D10006BED76E18C2D0E94C128F701648140851E
:102D20005185D4842DB73EB72D1931090FB6F894CB
:102D30003EBF0FBE2DBFEDB7FEB731967F018F01AD
:102D40002D2DFC0180810E94DC17FF92EF921F92D3
:102D5000DF921F92CF9288EC90E19F938F930E9415
:102D6000C1312DB73EB7285F3F4F0FB6F8943EBF35
:102D70000FBE2DBF0FB6F894BEBE0FBEADBEDF9125
:102D8000CF911F910F91FF90EF90DF90CF90BF9068
:102D9000AF900895CF93DF93EC016BED76E18881DE
:102DA0000E94C128488559856C81FC018081DF9192
:102DB000CF910C946618EF92FF921F93CF93DF93FD
:102DC000EC018C85182F1F7741E050E06BED76E128
:102DD00088810E9492287C018C819D81AE81BF8177
:102DE000892B8A2B8B2BF1F48091BC0082FD10C0C3
:102DF00061E089E10E94092561E088E10E940925DE
:102E00001092B90088E48093B80084E08093BC00FD
:102E1000812F880FF7018083DF91CF911F91FF9061
:102E2000EF90089581E30E94EC370F931F93CF93A7
:102E3000DF938C0164E179E1FC0180810E94C1286B
:102E4000EC010E943535F80184819581A681B78116
:102E50008C839D83AE83BF8380859185A285B38556
:102E600088879987AA87BB87892B8A2B8B2B29F484
:102E7000DF91CF911F910F91089584859585A68547
:102E8000B7858C879D87AE87BF8780899189A28906
:102E9000B389888B998BAA8BBB8BCE01DF91CF91A5
:102EA0001F910F910C9487354F925F926F927F9292
:102EB0008F929F92AF92CF92EF92FF920F931F93B8
:102EC000CF93DF93EC014B01270138011F92CF9282
:102ED0007F926F925F92EF925F934F933F932F9306
:102EE0001F92AF928DEC90E19F938F930E94C1311E
:102EF0008DB79EB70E960FB6F8949EBF0FBE8DBFCE
:102F000088819981AA81BB81E816F9060A071B0707
:102F100050F0F40180819181A281B3818E159F05CB
:102F2000A007B10720F480912702882379F0DF9170
:102F3000CF911F910F91FF90EF90CF90AF909F9006
:102F40008F907F906F905F904F9008958DE10E94D9
:102F5000EC37CF92DF92EF92FF926B017C0109C0B8
:102F60000E945B26292F6C157D058E052F0927FFF2
:102F700009C08091BC0087FFF3CFFF90EF90DF90F6
:102F8000CF90089580E30E94EC3724EA2093BC00A0
:102F90000E94A9178091B90090E0A0E0B0E08031D4
:102FA0009105A105B10521F00897A105B10509F426
:102FB00008958FE20E94EC377F928F929F92AF929A
:102FC000BF92CF92DF92EF92FF920F931F93CF9316
:102FD000DF93782EC62F942EB52E822E0E945B266C
:102FE0006B017C0120E8C20E28E3D21E21E0E21E24
:102FF000F11CC701B6010E94C5177092BB0084E89E
:103000008093BC00C701B6010E94A917AA24AA9404
:10301000AC0ECC23B1F0C92DDB2DB12C8FEFA81A4B
:10302000B80AAC0EBD1E94E8992E89918093BB001E
:103030009092BC00C701B6010E94A917AC16BD064C
:10304000A1F7C701B6010E94C517872D8160809343
:10305000BB0084E88093BC00C701B6010E94A91799
:10306000DFEFD80D882009F15801CD2F84EC982E80
:10307000CC2369F09092BC00C701B6010E94A91749
:103080008091BB00F50181935F01C15099F7F80170
:10309000ED0FF11DEF0184E88093BC00C701B6017C
:1030A0000E94A9178091BB00888384E98093BC00AB
:1030B000DF91CF911F910F91FF90EF90DF90CF9014
:1030C000BF90AF909F908F907F900895BF92CF92C6
:1030D000DF92EF92FF920F931F93CF93DF93D82F3E
:1030E000C62FB42E152F0E945B266B017C0120E8B1
:1030F000C20E28E3D21E21E0E21EF11CC701B60178
:103100000E94C517D093BB0084E88093BC00C70120
:10311000B6010E94A9170FEF0C0FCC23A9F0CB2DFD
:10312000D12F10E00F5F1F4F0C0F1D1F84E8B82E2A
:1031300089918093BB00B092BC00C701B6010E9488
:10314000A917C017D107A1F784E98093BC00DF91CC
:10315000CF911F910F91FF90EF90DF90CF90BF9094
:1031600008958036A0F567FD32C0E82FE695E69514
:10317000E695F0E0EE0FFF1FE955F04FA591B491F1
:10318000109729F1877021E030E0A90102C0440FB7
:10319000551F8A95E2F7CA014FB7F89412963C91F1
:1031A0001297662381F0382B282F209512963C9396
:1031B000129711963C911197232311962C931197F6
:1031C0004FBFBD010895282F20953223EFCF8BE20A
:1031D0000E94EC37FB012FB7F8949281411105C092
:1031E0008095892382832FBF0895892B82832FBFE7
:1031F0000895FC011092260281E08093470287899E
:103200008160878B44815581668177818085918536
:10321000A285B385840F951FA61FB71F848395834E
:10322000A683B78381E00895FF920F931F93CF93F6
:10323000DF93EC01F88483E08F15E0F048E150E083
:1032400064E179E188810E9492288C0189EF98E1FC
:10325000F8019383828366EA73E38C810E94C1281C
:10326000F801958B848BF68ADF91CF911F910F9196
:10327000FF9008958EE10E94EC37CF92DF92FF928B
:103280000F931F93CF93DF93EC0166EA73E38C8176
:103290000E94C1286C01F8840F2D10E0A8014D5F39
:1032A0005F4F6DE379E188810E949228FC01D18211
:1032B000C082F2826C857D85A8010396DF91CF9153
:1032C0001F910F91FF90DF90CF900C949F3A8BE16C
:1032D0000E94EC376F927F928F929F92AF92BF9233
:1032E000CF92DF92EF92FF920F931F93CF93DF93D2
:1032F0004C01E62E142F6901DC0115967C90159780
:10330000872D867009F451C071FC39C0F401908199
:1033100081819CBD8DBDF72DF1706F2E70FCC8C0F2
:10332000EE2009F49CC08FEF810F112351F0F601BC
:1033300090819EBD0DB407FEFDCF9EB59193815047
:10334000B8F7662091F1072D069506950695402F52
:1033500040954170D40112966D917D918C91DF91D1
:10336000CF911F910F91FF90EF90DF90CF90BF9082
:10337000AF909F908F907F906F900C94EA18ED9192
:10338000FC91418542706681778180850E94EA18B0
:10339000B72DB1706B2E70FC17C0D401CD91DC91AC
:1033A000AA24AA94A10E111126C0DF91CF911F91DA
:1033B0000F91FF90EF90DF90CF90BF90AF909F90D4
:1033C0008F907F906F900895072D0695069506952E
:1033D000402F4170F4016281738184810E94EA1858
:1033E000D401CD91DC91AA24AA94A10E112309F451
:1033F000AECF66246394B12C8FEFA81AB80AAC0C38
:10340000BD1CD601FC9008E010E0898580FF35C026
:10341000EE81FF81888580834F2D40786B817C8190
:103420008D810E94EA18FF0CEE81FF8188858083E0
:10343000110FE881F98190818A81892391E009F453
:1034400090E0192B015009F7EE2011F0F6011083DE
:10345000FFEFCF1ADF0AAC14BD0499F672CFF60164
:103460009601210F311D2E173F0709F46ACF819174
:103470008EBD0DB407FEFDCFF6CF4F2D40786B818A
:103480007C818D810E94EA18FF0CEE81FF81888586
:103490008083110FE881F98190818A81892391E0ED
:1034A00009F490E0192BEE81FF8188858083CACFD3
:1034B00073FA442740F9F4016281738184810E9488
:1034C000EA18662463942CCFCF93DF93EC0166EA6D
:1034D00073E388810E94C128288539854C8160E08A
:1034E000DF91CF910C946A19FF920F931F93CF93A2
:1034F000DF93EC01188166EA73E3812F0E94C128F3
:103500000C81F884C9852F2D3C2F402F61E00E944B
:103510006A19CF93FF921F920F931F921F9382ED10
:1035200090E19F938F930E94C1318DB79EB708960B
:103530000FB6F8949EBF0FBE8DBFDF91CF911F9144
:103540000F91FF900895CF93DF93EC016A8D66236E
:1035500009F453C0FC0150E031E020E0A38DB48DAC
:103560004C91958D942309F0532B2F5F330F339695
:103570002613F4CF2C85922F952729F08D8585274A
:1035800080959823D9F4888D5D8787FD03C081508D
:1035900070F1888F4C815D816E817F8188859985EE
:1035A000AA85BB85840F951FA61FB71F8C839D839B
:1035B000AE83BF8381E0DF91CF910895982F9095DE
:1035C00029238523822B8C879E859830E0F621E085
:1035D000290F2E87FE01E90FF11D87871092260221
:1035E00081E0809348028FEF888F5D87D3CF109260
:1035F000260291E090934802CCCF50E0BBCFAF922F
:10360000BF92DF92EF92FF920F931F93CF93DF93BE
:10361000FC01A485B585968547855089E188228976
:103620003389F488A588B6887789008D118DD28C6E
:10363000808586279C9384FD20C085FD22C086FD61
:1036400024C087FD26C09C93862F8295807F80872B
:1036500068279C9364FD2AC065FD25C066FD1CC0DB
:1036600067FD1EC09C93DF91CF911F910F91FF903A
:10367000EF90DF90BF90AF900895EA01E88285FF58
:10368000DECFE901F88286FFDCCFE501788387FF92
:10369000DACFE801D882D7CFF501708367FFE2CF98
:1036A000E801D882DFCFE901F882D8CFFA01E082C1
:1036B000D3CF0F931F93CF93DF938C0165E87BE10A
:1036C000DC018C910E94C128FC01D80114969C91C8
:1036D000828D9817B8F4292F30E0E901CC0FDD1F57
:1036E0002C0F3D1FEF01C20FD31FF80164858085A9
:1036F0000E94B1186B8F7C8F8D8FDF91CF911F91BE
:103700000F91089585E20E94EC37CF93FC01C481AC
:10371000C930B8F44C2F50E09A01220F331F420FEA
:10372000531F455E5F4F65E87BE1FC0180810E948D
:103730009228FC01C28F23EA3AE133832283CF919E
:10374000089586E20E94EC375F926F927F928F928B
:103750009F92AF92BF92CF92DF92EF92FF920F9320
:103760001F93CF93DF938C01FC01C080D180E28056
:10377000F38084809580A680B78066246A94660E64
:10378000662301F1EA01712CFFEF6F1A7F0A640EC4
:10379000751E59900E945B26DC01CB018C199D0996
:1037A000AE09BF0988159905AA05BB0598F3652DD3
:1037B000C8010E94FF1A0E945B266B017C01C6159E
:1037C000D70539F7F801C082D182E282F382DF9116
:1037D000CF911F910F91FF90EF90DF90CF90BF900E
:1037E000AF909F908F907F906F905F9008950F9310
:1037F0001F93CF93DF93EC016FE27CE188810E94FD
:10380000C1288C01FC0161857285838541E00E949D
:10381000EA18488559856C81C801DF91CF911F91C5
:103820000F910C94A41B0F931F93CF93DF93EC0184
:103830006FE27CE188810E94C1288C01FC016185D6
:103840007285838540E00E94EA18488559856C811D
:10385000C801DF91CF911F910F910C94A41BCF92BF
:10386000DF92EF92FF920F931F93CF93DF93EC01C0
:103870004BE150E06FE27CE188810E9492288C014C
:1038800060E08C810E940925F80161877287838737
:1038900060E088850E940925F8016487758786871E
:1038A00060E08C850E940925F8016787708B818B09
:1038B00060E088890E940925F801628B738B848BF4
:1038C00060E08C890E940925F801658B768B878BD7
:1038D00060E0888D0E940925F801608F718F828FCA
:1038E000F8940E945B266B017C0160E0C8010E9495
:1038F000FF1A0E945B267894DC01CB018C199D098C
:10390000AE09BF09CC8CDD8CEE8CFF8C8C159D052F
:10391000AE05BF0548F4C81AD90AEA0AFB0AF8013D
:10392000C482D582E682F782DF91CF911F910F91F9
:10393000FF90EF90DF90CF9008954F925F926F923B
:103940007F928F929F92AF92BF92CF92DF92EF922F
:10395000FF920F931F93CF93DF938C01562E3A0162
:10396000FC0180809180A280B380C480D580E680F5
:10397000F780EA012196FA014080642D607F0E9461
:10398000652F0E945B26DC01CB0188199909AA09E1
:10399000BB098C159D05AE05BF0598F3642D629596
:1039A000607FC8010E94652F0E945B266B017C012D
:1039B000F80180849184A284B384F1E05F1639F128
:1039C0005A945A94852D90E00296680E791E59906B
:1039D000652D607FC8010E94652F0E945B26DC0177
:1039E000CB018C199D09AE09BF0988159905AA0557
:1039F000BB0598F3652D6295607FC8010E94652F15
:103A00000E945B266B017C01C615D70501F7F80102
:103A1000C082D182E282F382DF91CF911F910F9118
:103A2000FF90EF90DF90CF90BF90AF909F908F90DE
:103A30007F906F905F904F900895CF92DF92EF92BA
:103A4000FF92CF93DF93FC01A085B18582858C9393
:103A5000968581E089278687C82FC170C688D78858
:103A6000E08CF18C97859F5FD1899D1708F05FC02E
:103A7000892F869586958695DF01A80FB11D5A96E8
:103A80002C9130E0892F877002C0359527958A9553
:103A9000E2F72170B701A601C217A9F033C0892F40
:103AA000869586958695DF01A80FB11D5A962C91B3
:103AB00030E0892F877002C0359527958A95E2F707
:103AC0002170C2131FC04C0D5D1D6E1D7F1D9F5FB9
:103AD0009D1728F388E190E2938382838481958106
:103AE000A681B781480F591F6A1F7B1F44835583E6
:103AF0006683778381E0DF91CF91FF90EF90DF9035
:103B0000CF900895978784819581A681B781480FCA
:103B1000591F6A1F7B1F448355836683778381E027
:103B2000DF91CF91FF90EF90DF90CF900895B70194
:103B3000A601D0CFCF92DF92EF92FF920F931F9307
:103B4000CF93DF93EC01E885F9858A8580830E9415
:103B50005B263E8521E023272E872F852F5F2F8729
:103B6000213009F45CC02530E0F40C811D812E81E8
:103B70003F814A895B896C897D89DB01CA01800F9D
:103B8000911FA21FB31F8C839D83AE83BF8381E0EF
:103B9000DF91CF911F910F91FF90EF90DF90CF9029
:103BA0000895CC80DD80EE80FF80AB01BC014C1914
:103BB0005D096E097F098E899F89A88DB98D481B83
:103BC000590B6A0B7B0BDB01CA010296A11DB11DCB
:103BD000B7FD34C0B595A79597958795B595A795E9
:103BE000979587950A891B892C893D89800F911F9C
:103BF000A21FB31F8E8B9F8BA88FB98F2DE13DE144
:103C00003B832A834C0D5D1D6E1D7F1D840F951F08
:103C1000A61FB71F8C839D83AE83BF83B8CF0C8153
:103C20001D812E813F81AB01BC01401B510B620BFA
:103C3000730B4E8B5F8B688F798F9BCFDB01CA0133
:103C40000596A11DB11DC6CFEF92FF920F931F9352
:103C5000CF93DF937C0165EC7EE1FC0180810E94C3
:103C6000C128EC011E8511FF07C0DF91CF911F9184
:103C70000F91FF90EF900895F701048160857185A1
:103C8000F4840B3008F045C0FAE0FF1508F441C099
:103C9000402F50E04A960E949F3A1F86117312608F
:103CA0001E87802F880F880F880F898BFF0CFF0CD1
:103CB000FF0CF88A002349F08A8D8F738A3229F429
:103CC0008AE99DE19B838A830CC08A899B89AC89A0
:103CD000BD898E8B9F8BA88FB98F8DE19DE19B83D2
:103CE0008A83F8940E945B26DC01CB018058934FB5
:103CF000AF4FBF4F8C839D83AE83BF83CE010E94A5
:103D000087357894DF91CF911F910F91FF90EF90BD
:103D1000089587E20E94EC370F931F93CF93DF93B0
:103D20008C0165E87BE1DC018C910E94C128EC01EB
:103D3000D8011496EC918F898E0F8F8BF8948E8515
:103D4000E817D0F48E1BF0E03F96EC0FFD1FDE016C
:103D50001F962FEF280F30E0205F3F4F2C0F3D1FA5
:103D600091919D93A217B307D9F78E877894DF912D
:103D7000CF911F910F9108951E868EEF888F7894B2
:103D8000DF91CF911F910F9108957F928F929F9213
:103D9000AF92BF92CF92DF92EF92FF920F931F9359
:103DA000CF93DF93EC0144E250E065EC7EE1888143
:103DB0000E9492288C0178848C809D80AE80BF8088
:103DC000CC84DD84EE84FF8461E0711001C060E08A
:103DD000882D0E94B118F80163877487858761E098
:103DE0008C2D0E940925F801608771878287888958
:103DF0009989AA89BB89828B938BA48BB58B71100F
:103E000018C091E08C149D04AE04BF04C1F080E0A2
:103E1000892BF8018687DF91CF911F910F91FF9039
:103E2000EF90DF90CF90BF90AF909F908F907F905A
:103E3000089591E18C149D04AE04BF0441F780E223
:103E4000E7CF0F931F93CF93DF938C0165E87BE15E
:103E5000FC0180810E94C128EC010E943535F801E7
:103E600084819581A681B7818C839D83AE83BF8336
:103E70004085518562857385488759876A877B8726
:103E800080898D878C871E861F8A8EEF888F848518
:103E9000898F87FD10C0452B462B472B29F4DF91D6
:103EA000CF911F910F910895CE01DF91CF911F9176
:103EB0000F910C94873584E20E94EC37CF93DF9307
:103EC000EC018E8585FD0DC0688579858A8541E088
:103ED0000E94EA188E85807381608E87DF91CF9172
:103EE0000895E885F9858A852FB7F8949281982BF3
:103EF00092839181892B81832FBF8E85807381600E
:103F00008E87DF91CF910895CF93DF93FC01A38536
:103F1000B4855C918785982F977021E030E001C0CF
:103F2000220F9A95EAF7982F969596959695DF0128
:103F3000A90FB11D5A969C915A9745854523E1F0EA
:103F4000292B5A962C938F5F90898917E8F48787DD
:103F5000448155816681778186899789A08DB18D4D
:103F6000840F951FA61FB71F84839583A683B783ED
:103F700081E0DF91CF910895209529235A962C93C3
:103F80008F5F9089891718F3EF01CF010E945E1FA0
:103F90008E8588608E871092260281E08093490288
:103FA00080E0DF91CF910895CF93DF93FC01A3854B
:103FB000B4859C9185858923E9F086858460868710
:103FC000878591E0980F9787803408F54481558163
:103FD0006681778186899789A08DB18D840F951F21
:103FE000A61FB71F84839583A683B78381E0DF91E3
:103FF000CF910895868582FFE3CF178684E89FE1FD
:1040000093838283CF01DF91CF910C94841FEF01C2
:10401000108ACF010E945E1F8E8588608E87109265
:10402000260281E08093490280E0DF91CF910895DC
:104030000F931F93CF93FC01C089CC23E9F18685B0
:1040400085FD23C0178684ED9FE193838283868953
:104050009789A08DB18D880F991FAA1FBB1F880F4C
:10406000991FAA1FBB1F4481558166817781840FE8
:10407000951FA61FB71F84839583A683B783C1E0CE
:104080008C2FCF911F910F910895A385B4859585AD
:104090002FB7F89484FF21C012968C911297892B28
:1040A000909512968C93129711968C911197982354
:1040B00011969C932FBFC6CF8C010E945E1FF80102
:1040C0008685886086871092260281E08093490267
:1040D0008C2FCF911F910F91089512968C9112976A
:1040E00090958923DECF0F931F93CF93DF93FC012D
:1040F000A189B2898D919C911197928B818B169693
:104100008D919C911797C085D185228521113FC043
:104110002FB7F894AC015527598348832FBF2091BE
:104120004A0230914B0211963C932E93B0934B026E
:10413000A0934A02A189B289109759F52785308941
:104140008217930741F083859485A585B6850097EE
:10415000A105B10531F480E0DF91CF911F910F915E
:1041600008954481558166817781840F951FA61F2C
:10417000B71F84839583A683B78388EF90E29383E8
:10418000828381E0DF91CF911F910F910895888301
:10419000C6CF12964D915D916D917C9115972785B3
:1041A00030898217930741F083859485A585B6856C
:1041B0000097A105B10551F4448355836683778345
:1041C00081E0DF91CF911F910F91089504811581B6
:1041D00026813781800F911FA21FB31F2B2F8417B9
:1041E0009507A607270B27FFE7CF80E20E94EC3751
:1041F00081E20E94EC372F923F924F925F926F9232
:104200007F928F929F92AF92BF92CF92DF92EF9266
:10421000FF920F931F93CF93DF9300D01F921F92B3
:10422000CDB7DEB77C012DB73EB73D832C836BED58
:1042300076E1DC018C910E94C1289B838A83F7017F
:10424000F481F983D70118966D907C9019971C968C
:104250008D919D910D90BC91A02D80FD6BC01C0196
:104260002D015694479437942794F701E088F188FC
:10427000C22CD12CF9810F2F10E0C8018C0D9D1D8F
:104280002DB73EB7281B390B0FB6F8943EBF0FBEB3
:104290002DBF8DB79EB701965C01A801B3010E94A6
:1042A0009F3A4501800E911E8401222DA301698150
:1042B000AA81BB818C910E94DC17C114D10499F0B2
:1042C000CE0CDF1CF4019601D7018D917D01809504
:1042D000908189238083D9019D919D01892B8193B0
:1042E000CE14DF0489F76981620DA501EA81FB81A3
:1042F00080810E946618EC81FD810FB6F894FEBFA4
:104300000FBEEDBF0F900F900F900F900F90DF91A9
:10431000CF911F910F91FF90EF90DF90CF90BF90C2
:10432000AF909F908F907F906F905F904F903F9055
:104330002F9008958FE10E94EC371F93CF93DF9366
:10434000EC01162FAC89BD891097B9F01296ED914A
:10435000FC9113978D919C9111979D8B8C8B11964D
:104360001C921E9213961C921E921297612FCD01E1
:104370001995AC89BD89109749F71092260281E002
:1043800080934C02DF91CF911F910895FC013897E3
:10439000968990FF08C0608D678B9A7F9460968B9A
:1043A000CF010E949D2180E00895FC0186898460F0
:1043B000868B1092260281E080934C0244815581C5
:1043C0006681778180899189A289B389840F951F3D
:1043D000A61FB71F84839583A683B78381E00895C2
:1043E000FC01A085B1859C9182858923D1F0818DC6
:1043F00080958170C9F4838D815031F1838F448120
:1044000055816681778187859089A189B289840FDA
:10441000951FA61FB71F84839583A683B78381E06A
:104420000895818D817039F380E29AE293838283CB
:1044300083899489A589B68984839583A683B78364
:10444000828D838F81E00895A789B08D56969C91C7
:104450005697892F817090FFE3CF648D57966C93A8
:1044600057979A7F946056969C935697CD010E94D9
:104470009D2180E00895FC0180917A0086FF0EC0A6
:1044800084819581A681B7818853984FAF4FBF4FE4
:1044900084839583A683B78381E00895828D90916C
:1044A0000902981781F09F3F59F780930902982FCE
:1044B000987090937B008770806480937C0087ED78
:1044C00080937A00DDCF8FEF8093090220917800EE
:1044D00030917900858D968D891780F544895589AD
:1044E000240F351F8F5F358B248B858F891760F1E3
:1044F0008689978928173907C8F1808D918D821791
:104500009307A0F1138E1092260281E080934D0252
:10451000408951896289738980859185A285B38597
:10452000840F951FA61FB71F808B918BA28BB38B17
:1045300084839583A683B78381E0089581E0358BDA
:10454000248B858F8917A0F64481558166817781F8
:1045500084859585A685B785840F951FA61FB71FEF
:1045600084839583A683B78381E00895838D8F5FCD
:10457000838F948D891738F2809127028111C2CFE1
:104580008AE10E94EC37EF92FF921F93CF93DF9363
:104590007C01FC0110816AE373E2812F0E94C12833
:1045A000EC01F8948E8980FF09C0F70164816F8B5C
:1045B0008A7F84608E8BCE010E949D21CE010E9455
:1045C0003535CE0108960E9435351E8A8F8978943C
:1045D0001F921F921F921F921F928F931F921F92E2
:1045E0001F921F938CED90E19F938F930E94C13196
:1045F0008DB79EB70C960FB6F8949EBF0FBE8DBFB9
:10460000DF91CF911F91FF90EF900895CF93FC0120
:10461000C08160ED73E28C2F0E94C128FC01F894E8
:10462000818D33894489558966897894A085B185BF
:104630002C919285922321E009F420E01F922F9380
:104640006F935F934F933F93869581701F928F93E3
:104650001F92CF9381EE90E19F938F930E94C1317F
:104660008DB79EB70C960FB6F8949EBF0FBE8DBF48
:10467000CF91089549E150E06AE373E2FC01808143
:104680000E94922825ED31E2FC013383228326EC3F
:1046900031E2338722870895EF92FF920F931F93A1
:1046A000CF93DF938C016AE373E2FC0180810E9467
:1046B000C128EC01F8948E8980FF13C07E01F8E0D8
:1046C000EF0EF11CC7010E943535F80184819581F8
:1046D000A681B7818C879D87AE87BF87C7010E945F
:1046E00087357894DF91CF911F910F91FF90EF90D4
:1046F00008950F931F93CF93DF938C0160ED73E2C6
:10470000FC0180810E94C128EC010E943535F8012E
:1047100084819581A681B7818C839D83AE83BF837D
:1047200080859185A285B3858F87988BA98BBA8B5D
:1047300084858A8F882361F1F801408951896289D3
:1047400073894B875C876D877E8720E23AE23B83E3
:104750002A838B8F84899589A689B789892B8A2B8F
:104760008B2BA1F482E0898F6AE373E2F801808DDC
:104770000E94C128988F8F8BF801848D8C8FCE0179
:10478000DF91CF911F910F910C94873583E0EBCF90
:10479000188E1F8A198EDF91CF911F910F91089566
:1047A0000F931F93CF93DF93EC014DE150E060ED49
:1047B00073E288810E9492288C0168858C810E9416
:1047C000B118F801608771878287DF91CF911F91BF
:1047D0000F910895CF93DF93EC010E943535CE0100
:1047E00008960E943535EC89FD89309751F090810B
:1047F00081811382128211821082E92FF82F309763
:10480000B1F71D8A1C8A188E1F8A1E8ADF91CF91EC
:1048100008950F931F93CF93DF938C016AE373E2A4
:10482000FC0180810E94C128EC01F8940E94EA23D7
:1048300081E08E8BF80184819581A681B7818C837C
:104840009D83AE83BF8380859185A285B385888B48
:10485000998BAA8BBB8B892B8A2B8B2B19F0CE01C2
:104860000E948735F8018485888F7894DF91CF91F5
:104870001F910F910895B0990FC080914F029091B0
:1048800050020196109205021092040290930702C2
:104890008093060281E0089581E086BB80914F02FB
:1048A0009091500201969093500280934F0220E025
:1048B00030E830930502209304029093070280931E
:1048C000060281E00895CF93DF93FC0184819581F6
:1048D000A681B7814489558966897789C58DD68D2A
:1048E0003881C42FC170278D232331E009F430E0D3
:1048F000C31761F04F5F5F4F6F4F7F4F448B558BF6
:10490000668B778B808F918FA28FB38F408951896F
:1049100062897389272F481759076A072B0B27FFCE
:1049200018C0248D2160248F448555856685778540
:10493000840F951FA61FB71F808B918BA28BB38B03
:104940001092260281E080934E0284819581A68197
:10495000B7814085518562857385840F951FA61F99
:10496000B71F84839583A683B78381E0DF91CF91BE
:1049700008950F931F93CF93DF938C016BEE74E236
:10498000FC0180810E94C128EC010E943535F801AC
:1049900084819581A681B7818C839D83AE83BF83FB
:1049A0004085518562857385488759876A877B87EB
:1049B00044855585668577854C875D876E877F87BB
:1049C000888B998BAA8BBB8BCE01DF91CF911F91E6
:1049D0000F910C9487350F931F93CF93DF93EC01C6
:1049E00040E250E06BEE74E288810E9492288C01D4
:1049F00068858C810E94B118F801658F768F878F4A
:104A000083E694E293838283DF91CF911F910F918C
:104A10000895803678F5E82FE695E695E695F0E07E
:104A2000EE0FFF1FE955F04FA591B491109711F1CA
:104A3000877021E030E0A90102C0440F551F8A951C
:104A4000E2F7CA013FB7F89412962C9112976111C0
:104A50000FC04095242312962C93129711962C91F7
:104A60001197282B11962C9311973FBFBD010895E4
:104A7000242BF1CF8CE20E94EC371F920F920FB6DD
:104A80000F9211240BB60F92EF92FF920F931F9388
:104A90002F933F934F935F936F937F938F939F9346
:104AA000AF93BF93CF93DF93EF93FF930DC07A0142
:104AB00080918400909185008E199F0997FD7CC09C
:104AC0007894B2999AC0F894C0912202D0912302AE
:104AD000EA81FB81309709F0ADC0EA8DFB8D2C8D0A
:104AE00020838E859F85019709F4C1C09F878E879B
:104AF00088859985AA85BB854C815D816E817F8182
:104B0000480F591F6A1F7B1F4C835D836E837F8311
:104B100020832CA525FF0EC00C851D85012E000CC1
:104B2000220B330B800F911FA21FB31F8887998719
:104B3000AA87BB87E881F9810481158126813781A5
:104B4000872F401751076207830B87FDB0CF78018D
:104B5000F0932302E0932202A0912402B091250257
:104B600014960D911D912D913C911797872F401709
:104B700051076207830B87FFFD01DF010190F08180
:104B8000E02D0481158126813781872F4017510739
:104B90006207830B87FFF1CFF983E883CD93DC9322
:104BA000D0932502C09324028091840090918500C7
:104BB0008E199F0997FF84CF863A9F4F0CF06AC0E9
:104BC000F0928900E0928800FF91EF91DF91CF9100
:104BD000BF91AF919F918F917F916F915F914F9115
:104BE0003F912F911F910F91FF90EF900F900BBE6F
:104BF0000F900FBE0F901F901895F894809184002D
:104C0000909185009701281B390B2038314CDCF13D
:104C10002091260227FF43C09C01205C304E309338
:104C20008B0020938A0024E026BB90938900809318
:104C300088003ECFCE0119954C815D816E817F81C8
:104C4000811178CFE881F981E480F580F093230227
:104C5000E09322028091240290912502C817D9077F
:104C600009F026CFF0932502E093240221CFCE0154
:104C70000E94DF2CEA8DFB8D9C8D90834C815D81A1
:104C80006E817F81DDCF209127022111C1CF8AE281
:104C90000E94EC377894B299B0CFF89409CF9C0178
:104CA0002854344F30938B0020938A0024E026BB95
:104CB0007C01F39485CF2FB7F894609184007091B4
:104CC000850080914F0290915002B09902C02FBF91
:104CD00008952FBF7F3FE1F30196089578940E94D5
:104CE00005362FEF260F6623C1F0FC018FEF9FEFF3
:104CF00031918327082E8295807F8025092E982F59
:104D000082958F700826869598278927880F880FA7
:104D1000880F8025215060F708958FEF9FEF089549
:104D20000F931F93FC01A489B58986898C9393A165
:104D300081E0892783A3448155816681778180FF43
:104D400012C00085118522853385400F511F621FD7
:104D5000731F82FD12C0448355836683778381E08D
:104D60001F910F9108950485158526853785400F7D
:104D7000511F621F731F82FFEECF008911892289A4
:104D80003389872F401751076207830B87FDE3CFD5
:104D900084EF96E293838283B901A801448355830B
:104DA0006683778381E01F910F9108950895FC0138
:104DB0008081A481B58140855185628573859FB7C7
:104DC000F894813061F0823019F04C939FBF0895C0
:104DD0004D935D936D937C9313979FBF08951196A8
:104DE0005C934E939FBF08958F929F92AF92BF9214
:104DF000CF92DF92EF92FF921F93CF93DF93EC015C
:104E0000EF8CF8A0E114F10409F4F0C0F7018081FF
:104E1000918198A38F8F86809780A084B18411E0C0
:104E200081149104A104B10409F4A1C06C897D89A5
:104E30008E89412F0E94EA1880914A0290914B027C
:104E4000F70191838083F0924B02E0924A02811431
:104E50009104A104B104E9F08B8D9C8DAD8DBE8DC4
:104E600088169906AA06BB06A0F44F89588D698D4D
:104E70007A8D411551056105710509F45BC08C817E
:104E80009D81AE81BF81480F591F6A1F7B1F16602D
:104E900022C08BA131E081149104A104B10409F076
:104EA00068C084FB992790F921E09227391709F40B
:104EB00043C04F89588D698D7A8D41155105610523
:104EC0007105D1F18C819D81AE81BF81480F591F41
:104ED0006A1F7B1F1460EF8DF8A1309709F077C02F
:104EE0002BA1488B598B6A8B7B8B2071212B2BA399
:104EF00011FF5FC0880D991DAA1DBB1D12FD52C078
:104F000020E936E23B832A838C839D83AE83BF8373
:104F100088869986AA86BB868B8D9C8DAD8DBE8D2D
:104F200088199909AA09BB098C879D87AE87BF8715
:104F300081E011C012608BA1EF8DF8A13097D9F4F8
:104F4000188A198A1A8A1B8A8071812B8BA3812F58
:104F5000827011FD34C0DF91CF911F91FF90EF90CF
:104F6000DF90CF90BF90AF909F908F90089510E00A
:104F70005DCF30E096CF4281538164817581488B4B
:104F8000598B6A8B7B8B8071912F9460892B8BA3BB
:104F900011FF0FC08C819D81AE81BF81880D991D4D
:104FA000AA1DBB1D2B2F84179507A607270B27FDCE
:104FB000A7CF4C835D836E837F8381E0CCCF40E0BD
:104FC00050E0BA018C819D81AE81BF8193CFC280B8
:104FD000D380E480F580872F4C155D056E058F0921
:104FE00087FD07C08BA1B701A601C9CF85E10E944B
:104FF000EC3783E10E94EC37FC0185818F9384813B
:105000008F9380811F928F9380EF90E19F938F9376
:105010000E94C1310F900F900F900F900F900F9042
:105020000895DC012C911496ED91FC9115973FB7F2
:10503000F8942130E9F02230B1F0808190E0A0E0D6
:10504000B0E03FBFBF93AF939F938F938BEE90E100
:105050009F938F930E94C1310F900F900F900F90EC
:105060000F900F90089580819181A281B381E9CF43
:1050700080819181A0E0B0E0E4CFCF92DF92EF9207
:10508000FF92FC0140815181628173812481E3EAB6
:10509000FFE085919591A591B491481759076A074A
:1050A0007B0770F56A017B01C20ED11CE11CF11C6B
:1050B0008C159D05AE05BF0500F5841B90E09A0197
:1050C000225C3A4F3F932F939F938F937F936F93DD
:1050D0005F934F9389E091E19F938F930E94C13139
:1050E0008DB79EB70A960FB6F8949EBF0FBE8DBFC0
:1050F000FF90EF90DF90CF900895822F90E0DFCF68
:1051000080E090E0DCCF80912702882329F0823074
:1051100011F010922702089582E00E94EC378EE091
:105120000E94EC37CF93DF9390913702891730F5C7
:10513000C82FD0E0CC0FDD1FCC0FDD1FE09138026F
:10514000F0913902EC0FFD1F80819181892BB1F420
:1051500080913F0290914002892B81F4718360839A
:10516000CA010E949E312091380230913902C20F4B
:10517000D31F9B838A83DF91CF9108958BE00E9498
:10518000EC3790913702891788F4E0913802F0915A
:10519000390294E0899FE00DF11D112480819181F5
:1051A0008617970719F48281938108958CE00E94F5
:1051B000EC37CF92DF92EF92FF92CF93DF93C091C3
:1051C0003F02D09140022097B9F121976E01E12C66
:1051D000F12CA0913E02B0E02097D9F020E030E021
:1051E00040E050E0BA0180913C0290913D02FC0108
:1051F000E20FF31F4F5F5F4F6F4F7F4F2A0F3B1F31
:10520000820F931F918380834C155D056E057F058A
:1052100050F380913C0290913D02CA9FF001CB9FD8
:10522000F00DDA9FF00D1124E80FF91F11821082A2
:1052300090934B0280934A02DF91CF91FF90EF90C1
:10524000DF90CF900895FC011382128211821082A8
:105250006F3F710509F07CF480913F02909140020C
:10526000892B49F480913E0290E08617970714F449
:1052700060933E0208950E948F282FB7F894809182
:105280004A0290914B02009749F0FC014081518104
:1052900050934B0240934A022FBF08958FE00E9423
:1052A000EC37CF92DF92EF92FF921F93CF93DF9371
:1052B0006A017B016FEB7FE0FB019491981749F045
:1052C000675F7F4FF0E16F347F07B1F784E30E949F
:1052D000EC37FB013896949191FF1AC030EAC3165F
:1052E0003FE5D306E104F10408F483C0C0E8CC161E
:1052F000CEE7DC06C1E0EC06F10408F090C0D0E493
:10530000CD16DFEBDD06E104F104C8F414E022C0A1
:10531000F8EBCF16F7E4DF06E104F10490F0A0EC1F
:10532000CA16AEE3DA06A1E0EA06F10408F475C095
:10533000C114BBEFDB06B4E0EB06F10438F315E073
:1053400009C037EFC31638E0D306E104F10408F0D2
:105350005FC011E0FB013396A591B491FB01359636
:10536000C591D491FB0137963491E82FE695E695E7
:10537000E695F0E0EE0FFF1FE955F04F459154918F
:105380008770E1E0F0E07F0101C0EE0C8A95EAF75A
:10539000FB013196C590D490892F8170A038B1055A
:1053A00009F44BC0EFB7F8949881977011F0191376
:1053B00041C0188381112EC09FB7F894622F70E00E
:1053C000E601798368839FBF9C913160392B3C93C0
:1053D000DA0111969C911197E92A1196EC92EFBF90
:1053E000B601DF91CF911F91FF90EF90DF90CF90AA
:1053F0000895A8EDCA16A7E2DA06E104F10468F4FC
:10540000B7EFCB16B8E0DB06E104F10408F4A1CF56
:1054100012E0A0CFE6012883D7CF13E09BCFC114C1
:10542000EBEFDE06E4E0EE06F10410F416E092CFB6
:1054300017E090CF82E30E94EC3783E30E94EC37C1
:105440000F931F93FC01A085B1859C910481158168
:10545000268137814385548565857685400F511FA8
:10546000621F731F8285892361F0818D8095817011
:1054700059F0448355836683778381E01F910F91B0
:105480000895818D8170A9F7438B548B658B768B42
:1054900080EF91E293838283CF011F910F910C944F
:1054A000F021CF93DF93EC0169E87CE288810E94D0
:1054B000C128FC018C819D81AE81BF81892B8A2B03
:1054C0008B2B51F420E0F89494A59D7F922B94A708
:1054D0007894DF91CF91089522E0F5CF0F931F9339
:1054E000CF93DF938C01EC01A897CE010E94353554
:1054F0001C821D821E821F821A8A1B8A1C8A1D8A98
:1055000088A199A1AAA1BBA12CA54E855F85688918
:10551000798924FD04C07695679557954795841B36
:10552000950BA60BB70BB7FD40C0B095A095909515
:1055300081959F4FAF4FBF4F88A399A3AAA3BBA349
:105540001E861F86188A198A247128602CA76D8DE3
:105550007E8D8F8D40E00E94EA184CA544706A8DC4
:105560007B8D8C8D0E94EA18D8011497ED91FC91E7
:1055700011973097A9F040914A0290914B0201C0D7
:10558000F9012081318140839183F0934B02E093B4
:105590004A024E2F9F2F2115310591F71D921C9223
:1055A000DF91CF911F910F910895B095A09590959F
:1055B00081959F4FAF4FBF4FB8CF0F931F93CF939E
:1055C000DF938C0169E87CE2FC0180810E94C128A4
:1055D000EC016AE373E2F80184810E94C128BE01F4
:1055E000685D7F4F4FB7F8942AA53BA5232B89F41C
:1055F0002EE63AE23BA72AA7FC012489358939A780
:1056000028A7758B648B4FBFDF91CF911F910F91AE
:10561000089589E10E94EC37CF93DF93EC0169E8AC
:105620007CE288810E94C128FC018C819D81AE8131
:10563000BF81F8944685578560897189452B462B33
:10564000472B79F484839583A683B783828B938BCE
:10565000A48BB58B84A5877F84A77894DF91CF91A5
:10566000089586E10E94EC37CF93FC01C08169E880
:105670007CE28C2F0E94C128FC01F89480A191A1AA
:10568000A2A1B3A124A5468557856089718924FD0F
:1056900004C07695679557954795841B950BA60B87
:1056A000B70BB7FF07C0B095A095909581959F4F18
:1056B000AF4FBF4F7894B054BF93AF939F938F93E6
:1056C0001F92CF9386EE90E19F938F930E94C131FA
:1056D0008DB79EB708960FB6F8949EBF0FBE8DBFCC
:1056E000CF9108954F925F926F927F92BF92CF9227
:1056F000DF92EF92FF920F931F93CF93DF93FC0102
:10570000B08067E47CE28B2D0E94C128EC014D80C3
:105710005E806F807884C984DA84EB84FC840E9484
:105720005B26DC01CB0184199509A609B7098C1504
:105730009D05AE05BF0568F40E945B26DC01CB0128
:1057400084199509A609B7098C159D05AE05BF05F5
:1057500098F3CD84DE84688179818A81A091840068
:10576000B09185000B811C819E01215F3F4F790123
:10577000C20ED31ECE14DF0409F457C0F701919175
:105780007F0128E013C0F894409184005091850077
:10579000FB01808380837894FA01EA1BFB0BE017FE
:1057A000F107D8F4990FDA01215021F397FFEBCFDD
:1057B000F8944091840050918500FB018083789497
:1057C000FA01EA1BFB0BE017F10738F4990FF89484
:1057D000FB0180837894DA01E7CF40E00E94EA1869
:1057E0000E945B266D837E838F83988780E01F9263
:1057F0008F931F92BF9286E990E19F938F930E94AF
:10580000C1310F900F900F900F900F900F90DF917C
:10581000CF911F910F91FF90EF90DF90CF90BF90AD
:105820007F906F905F904F9008950E945B266D83EC
:105830007E838F83988781E0DACF0F931F93CF9376
:10584000DF93EC0167E47CE288810E94C1280C812F
:105850001D812E813F8148856C857D8517FD14C093
:1058600050E0DA01A00FB11FEC01ED85FE85EA17CB
:10587000FB0750F0015F1F4F800F911FDF91CF9109
:105880001F910F910C949F3A88E20E94EC376F921F
:105890007F928F92CF92DF92EF92FF92CF93DF931E
:1058A000EC0160E08C810E9409253B01882EC884B0
:1058B000D984EA84FB84D7FC24C0A601415F5F4FF2
:1058C00067E47CE288810E949228FC0160827182F8
:1058D0008282D686C5868C859D85948383838889BC
:1058E0009989AA89BB8981879287A387B487DF9129
:1058F000CF91FF90EF90DF90CF908F907F906F903F
:10590000089589E20E94EC37FC01648180810C9447
:1059100009250F931F93CF93DF938C014DE250E045
:1059200069E87CE2FC0180810E949228EC01F80188
:10593000848518160CF041C064E06CA7F8018481DE
:105940000E9409256A8F7B8F8C8F60E0F80180852B
:105950000E9409256D8F7E8F8F8F80E090E0A0E000
:10596000B0EC88A399A3AAA3BBA3F801808991896D
:10597000A289B3898E8B9F8BA88FB98F6BE070E063
:10598000CE0184960E9423298E899F89A88DB98D86
:105990008997A105B10548F08CE19EE29B838A833B
:1059A000DF91CF911F910F9108958CA580618CA7F5
:1059B000DF91CF911F910F91089560E0BECFCF92FC
:1059C000DF92EF92FF92CF93DF93FC01A4A1B5A1E8
:1059D000109761F416861786108A118A80E0DF918D
:1059E000CF91FF90EF90DF90CF9008958D919C9193
:1059F000119795A384A316968D919C9117979587DF
:105A000084871296CD90DD90ED90FC901597AC01B7
:105A1000092E000C660B770B4C0D5D1D6E1D7F1D56
:105A2000408751876287738724A524FD43C042893C
:105A3000538964897589C40ED51EE61EF71EC28A75
:105A4000D38AE48AF58AC482D582E682F7821896E0
:105A50008D919C911997AC0160E070E0440F551F47
:105A6000661F771F46875787608B718B1A962C911C
:105A70001A9720FD3FC040A151A162A173A1480F18
:105A8000591F611D711D40A351A362A373A380918F
:105A90004A0290914B0211969C938E93B0934B02C5
:105AA000A0934A0281E0DF91CF91FF90EF90DF90C9
:105AB000CF9008954481558166817781C40ED51EAB
:105AC000E61EF71EC482D582E682F782892B31F169
:105AD000206224A718968D919C911997AC0160E0E3
